:100000000C942A000C943F000C943F000C943F0089
:100010000C943F000C943F000C943F000C943F0064
:100020000C943F000C943F000C943F000C943F0054
:100030000C943F000C943F000C943F000C943F0044
:100040000C943F000C943F000C943F000C943F0034
:100050000C943F0011241FBECFE5D8E0DEBFCDBF1A
:1000600010E0A0E6B0E0E8E4FFE102C005900D92E8
:10007000AA39B107D9F70E94350E0C94A20F0C943F
:100080000000EF92FF920F931F937B018C0120E001
:1000900030E040E05FE40E94410388238CF0C80117
:1000A000B70120E030E040E05FE40E94B9010E9427
:1000B000A1039B01AC01205030404040504806C095
:1000C000C801B7010E94A1039B01AC01B901CA019B
:1000D0001F910F91FF90EF900895A0E0B0E0E3E74B
:1000E000F0E00C946B0FDC012B01FA019C91923033
:1000F00008F439C1EB018881823008F433C19430AF
:1001000069F4843009F02FC111969C91119789816F
:10011000981709F428C1A0E6B0E025C1843009F49D
:1001200021C18230A9F4923009F01DC19A01AD01BC
:1001300088E0EA010990AE01E90109929E0181502F
:10014000C1F7E201898111969C918923818308C1BD
:10015000923009F407C112962D903C901397EB0151
:100160008A819B811496AD90BD90CD90DC901797BD
:10017000EC80FD800E811F819101281B390BB90194
:1001800037FF04C066277727621B730B6032710547
:100190000CF061C0121613066CF537014801062EEB
:1001A00004C096948794779467940A94D2F721E0D8
:1001B00030E040E050E004C0220F331F441F551FC1
:1001C0006A95D2F721503040404050402E213F21C7
:1001D00040235123211531054105510521F021E02E
:1001E00030E040E050E079018A01E628F72808294C
:1001F00019293CC0232BD1F1260E371E35014601AB
:10020000062E04C096948794779467940A94D2F744
:1002100021E030E040E050E004C0220F331F441FD3
:10022000551F6A95D2F721503040404050402A2156
:100230003B214C215D21211531054105510521F05E
:1002400021E030E040E050E059016A01A628B728DB
:10025000C828D9280BC0821593052CF01C01AA24AC
:10026000BB24650103C0EE24FF24870111969C91F5
:10027000D20111968C91981709F445C0992339F051
:10028000A80197012A193B094C095D0906C0A6017E
:1002900095012E193F09400B510B57FD08C01182E3
:1002A0003382228224833583468357831DC081E0B5
:1002B00081833382228288279927DC01821B930B5A
:1002C000A40BB50B84839583A683B7830DC0220F3F
:1002D000331F441F551F24833583468357838281F0
:1002E000938101979383828324813581468157814D
:1002F000DA01C9010197A109B1098F5F9F4FAF4F83
:10030000BF4328F30BC0918333822282EA0CFB1C8B
:100310000C1D1D1DE482F5820683178383E0808314
:10032000248135814681578157FF1AC0C901AA2708
:1003300097FDA095BA2F81709070A070B0705695FF
:10034000479537952795822B932BA42BB52B848328
:100350009583A683B7838281938101969383828359
:10036000DF0101C0D201CD01CDB7DEB7E2E10C94CF
:10037000870FA0E2B0E0EFEBF1E00C94770F698318
:100380007A838B839C832D833E834F835887E9E058
:10039000EE2EF12CEC0EFD1ECE010196B7010E944F
:1003A000CA048E010F5E1F4FCE010596B8010E9450
:1003B000CA048A8991E089278A8BC701B801AE01F6
:1003C000475E5F4F0E946D000E94F503A096E6E035
:1003D0000C94930FA0E2B0E0E0EFF1E00C94770F03
:1003E00069837A838B839C832D833E834F835887D5
:1003F000F9E0EF2EF12CEC0EFD1ECE010196B701B7
:100400000E94CA048E010F5E1F4FCE010596B801EF
:100410000E94CA04C701B801AE01475E5F4F0E9447
:100420006D000E94F503A096E6E00C94930FA0E205
:10043000B0E0EDE1F2E00C946B0F69837A838B837B
:100440009C832D833E834F835887CE010196BE0146
:10045000675F7F4F0E94CA04CE010596BE016F5EA2
:100460007F4F0E94CA049985923088F08989823032
:10047000C8F0943019F4823051F404C0843029F467
:10048000923081F480E690E0C6C0923049F420E0DA
:100490009A858A89981321E02A87CE010996BBC0E4
:1004A000823049F420E09A858A89981321E02A8BCA
:1004B000CE014196B0C02D843E844F8458886D880B
:1004C0007E888F88988CEE24FF248701AA24BB2481
:1004D000650140E050E060E070E0E0E0F0E0C10184
:1004E00081709070892BE9F0E60CF71C081D191D2E
:1004F0009A01AB012A0D3B1D4C1D5D1D80E090E073
:10050000A0E0B0E0E614F7040805190520F481E046
:1005100090E0A0E0B0E0BA01A901480F591F6A1F9E
:100520007B1FAA0CBB1CCC1CDD1C97FE08C081E005
:1005300090E0A0E0B0E0A82AB92ACA2ADB2A3196C6
:10054000E032F10549F0660C771C881C991C569422
:10055000479437942794C3CFFA85EA892B893C893D
:100560008B859C85280F391F2E5F3F4F17C0CA010E
:1005700081709070892B61F016950795F794E79438
:1005800080E090E0A0E0B0E8E82AF92A0A2B1B2BD3
:1005900076956795579547952F5F3F4F77FDE7CF46
:1005A0000CC0440F551F661F771F17FD4160EE0CEE
:1005B000FF1C001F111F21503040403090E05907B0
:1005C00090E0690790E4790760F32B8F3C8FDB01A3
:1005D000CA018F779070A070B07080349105A1052A
:1005E000B10561F447FD0AC0E114F10401051105EC
:1005F00029F0405C5F4F6F4F7F4F40781A8EFE1797
:1006000011F081E08A8F4D8F5E8F6F8F78A383E02A
:10061000898FCE0149960E94F503A096E2E10C94E1
:10062000870FA8E1B0E0E7E1F3E00C94770F69836E
:100630007A838B839C832D833E834F83588789E005
:10064000E82EF12CEC0EFD1ECE010196B7010E94A2
:10065000CA048E010F5E1F4FCE010596B8010E949D
:10066000CA048985823040F08989823028F0C70128
:10067000B8010E94420501C08FEF6896E6E00C9435
:10068000930FA8E1B0E0E7E4F3E00C94770F6983FF
:100690007A838B839C832D833E834F83588789E0A5
:1006A000E82EF12CEC0EFD1ECE010196B7010E9442
:1006B000CA048E010F5E1F4FCE010596B8010E943D
:1006C000CA048985823040F08989823028F0C701C8
:1006D000B8010E94420501C08FEF6896E6E00C94D5
:1006E000930FA8E1B0E0E7E7F3E00C94770F69839C
:1006F0007A838B839C832D833E834F83588789E045
:10070000E82EF12CEC0EFD1ECE010196B7010E94E1
:10071000CA048E010F5E1F4FCE010596B8010E94DC
:10072000CA048985823040F08989823028F0C70167
:10073000B8010E94420501C081E06896E6E00C9491
:10074000930FACE0B0E0E7EAF3E00C947B0F698331
:100750007A838B839C83CE010196BE016B5F7F4FB2
:100760000E94CA048D81823061F1823050F1843060
:1007700021F48E81882351F12EC02F81388537FDD9
:1007800020C06E812F3131051CF06623F9F023C0A3
:100790008EE190E0821B930B29853A854B855C8521
:1007A00004C056954795379527958A95D2F76623C5
:1007B000B1F050954095309521953F4F4F4F5F4F89
:1007C0000EC020E030E040E050E009C02FEF3FEFE6
:1007D0004FEF5FE704C020E030E040E050E8B901AF
:1007E000CA012C96E2E00C94970FDF92EF92FF92F1
:1007F0000F931F93FC01E480F58006811781D1805F
:100800008081823048F480E090E0A0E1B0E0E82A06
:10081000F92A0A2B1B2BA5C0843009F49FC0823013
:1008200021F4EE24FF24870105C0E114F104010541
:10083000110519F4E0E0F0E096C0628173819FEF4A
:10084000623879070CF05BC022E83FEF261B370BBC
:100850002A3131052CF020E030E040E050E02AC0A1
:10086000B801A701022E04C0769567955795479564
:100870000A94D2F781E090E0A0E0B0E004C0880FD5
:10088000991FAA1FBB1F2A95D2F70197A109B10989
:100890008E219F21A023B1230097A105B10521F04E
:1008A00081E090E0A0E0B0E09A01AB01282B392B69
:1008B0004A2B5B2BDA01C9018F779070A070B07062
:1008C00080349105A105B10539F427FF09C0205CEA
:1008D0003F4F4F4F5F4F04C0215C3F4F4F4F5F4F23
:1008E000E0E0F0E02030A0E03A07A0E04A07A0E412
:1008F0005A0710F0E1E0F0E079018A0127C0603882
:10090000710564F5FB01E158FF4FD801C7018F77EE
:100910009070A070B07080349105A105B10539F4D4
:10092000E7FE0DC080E490E0A0E0B0E004C08FE3FB
:1009300090E0A0E0B0E0E80EF91E0A1F1B1F17FFB1
:1009400005C016950795F794E794319687E01695BC
:100950000795F794E7948A95D1F705C0EE24FF2414
:100960008701EFEFF0E06E2F679566276795902F70
:100970009F77D794DD24D7948E2F8695492F462BC9
:10098000582F5D29B701CA011F910F91FF90EF9079
:10099000DF900895FC01DB01408151812281622FAB
:1009A0006F7770E0221F2227221F9381892F880FE3
:1009B000822B282F30E0991F9927991F11969C931D
:1009C000119721153105A9F54115510561057105ED
:1009D00011F482E037C082E89FEF13969C938E93C8
:1009E00012979A01AB0167E0220F331F441F551F76
:1009F0006A95D1F783E08C930DC0220F331F441FFB
:100A0000551F12968D919C911397019713969C9365
:100A10008E931297203080E0380780E0480780E40A
:100A2000580758F314962D933D934D935C93179765
:100A300008952F3F310579F4411551056105710580
:100A400019F484E08C93089564FF03C081E08C93D3
:100A500012C01C9210C02F57304013963C932E9317
:100A6000129783E08C9387E0440F551F661F771F12
:100A70008A95D1F7706414964D935D936D937C9332
:100A8000179708951F93DC01FB019C91923008F4A5
:100A900047C08081823008F443C0943051F41196ED
:100AA0001C91843099F58181682F70E0611B710978
:100AB0003FC0843021F0923031F48230B9F181812D
:100AC000882389F12DC011961C9111978230F1F085
:100AD00081811817D9F412962D913C911397828138
:100AE00093818217930794F028173907BCF0149666
:100AF0008D919D910D90BC91A02D248135814681D1
:100B00005781281739074A075B0718F4112341F06A
:100B10000AC082179307A407B50740F4112319F000
:100B200061E070E005C06FEF7FEF02C060E070E051
:100B3000CB011F910895DF93CF93CDB7DEB72797F1
:100B40000FB6F894DEBF0FBECDBF9B838A8381E0D2
:100B500089838A819B81009711F41982EAC0EA8116
:100B6000FB8180818295869587708170282F30E087
:100B70003F832E838E819F81009731F02E813F81AC
:100B80002130310591F15FC0EA81FB818081837062
:100B9000882F90E0880F991FFC01E859FF4FA08132
:100BA000B181EA81FB8180818370882F90E0880F7A
:100BB000991FFC01E859FF4F0190F081E02D8081E1
:100BC000482FEA81FB818081869586958770282F42
:100BD00030E081E090E0022E02C0880F991F0A9455
:100BE000E2F7809584238C932EC0EA81FB8180817B
:100BF0008370882F90E0880F991FFC01E859FF4F00
:100C0000A081B181EA81FB8180818370882F90E08F
:100C1000880F991FFC01E859FF4F0190F081E02DEA
:100C20008081482FEA81FB81808186958695877037
:100C3000282F30E081E090E002C0880F991F2A95AC
:100C4000E2F7842B8C93EA81FB81808182958695E3
:100C5000869583708170282F30E03D832C838C81B2
:100C60009D81009731F02C813D812130310591F13A
:100C700060C0EA81FB8180818370882F90E0880FBB
:100C8000991FFC01E059FF4FA081B181EA81FB81EE
:100C900080818370882F90E0880F991FFC01E059B4
:100CA000FF4F0190F081E02D8081482FEA81FB8188
:100CB0008081869586958770282F30E081E090E0CE
:100CC000022E02C0880F991F0A94E2F780958423B0
:100CD0008C932FC0EA81FB8180818370882F90E004
:100CE000880F991FFC01E059FF4FA081B181EA8173
:100CF000FB8180818370882F90E0880F991FFC0111
:100D0000E059FF4F0190F081E02D8081482FEA816A
:100D1000FB818081869586958770282F30E081E061
:100D200090E0022E02C0880F991F0A94E2F7842BEC
:100D30008C93898127960FB6F894DEBF0FBECDBF86
:100D4000CF91DF910895DF93CF9300D000D000D0F2
:100D5000CDB7DEB79B838A836C8381E089838A81E8
:100D60009B81009711F419826FC08C81282F30E08D
:100D70003E832D838D819E81009731F02D813E81B0
:100D80002130310591F160C0EA81FB81808183705F
:100D9000882F90E0880F991FFC01E859FF4FA08130
:100DA000B181EA81FB8180818370882F90E0880F78
:100DB000991FFC01E859FF4F0190F081E02D8081DF
:100DC000482FEA81FB818081869586958770282F40
:100DD00030E081E090E0022E02C0880F991F0A9453
:100DE000E2F7809584238C932FC0EA81FB81808178
:100DF0008370882F90E0880F991FFC01E859FF4FFE
:100E0000A081B181EA81FB8180818370882F90E08D
:100E1000880F991FFC01E859FF4F0190F081E02DE8
:100E20008081482FEA81FB81808186958695877035
:100E3000282F30E081E090E0022E02C0880F991F39
:100E40000A94E2F7842B8C93898126960FB6F89446
:100E5000DEBF0FBECDBFCF91DF910895DF93CF935B
:100E600000D000D00F92CDB7DEB79B838A837D83FD
:100E70006C8381E089838A819B81009711F41982B8
:100E800024C0EA81FB8180818370882F90E0880FE5
:100E9000991FFC01E859FF4F0190F081E02D8081FE
:100EA000282F30E0EA81FB818081869586958770C6
:100EB000882F90E0A90102C0559547958A95E2F7E1
:100EC000CA018170EC81FD81808389810F900F9030
:100ED0000F900F900F90CF91DF910895DF93CF93F4
:100EE00000D000D000D0CDB7DEB79B838A836C835F
:100EF00081E089838A819B81009711F419826FC0F8
:100F00008C81282F30E03E832D838D819E81009738
:100F100031F02D813E812130310591F160C0EA81AF
:100F2000FB8180818370882F90E0880F991FFC01DE
:100F3000E059FF4FA081B181EA81FB8180818370FC
:100F4000882F90E0880F991FFC01E059FF4F019016
:100F5000F081E02D8081482FEA81FB818081869598
:100F600086958770282F30E081E090E0022E02C045
:100F7000880F991F0A94E2F7809584238C932FC0E1
:100F8000EA81FB8180818370882F90E0880F991F10
:100F9000FC01E059FF4FA081B181EA81FB81808192
:100FA0008370882F90E0880F991FFC01E059FF4F54
:100FB0000190F081E02D8081482FEA81FB818081C2
:100FC000869586958770282F30E081E090E0022E8C
:100FD00002C0880F991F0A94E2F7842B8C938981B1
:100FE00026960FB6F894DEBF0FBECDBFCF91DF912E
:100FF0000895DF93CF9300D000D00F92CDB7DEB726
:101000009B838A837D836C8381E089838A819B8132
:10101000009711F4198224C0EA81FB8180818370DA
:10102000882F90E0880F991FFC01E858FF4F01902E
:10103000F081E02D8081282F30E0EA81FB818081E2
:10104000869586958770882F90E0A90102C05595F6
:1010500047958A95E2F7CA018170EC81FD81808312
:1010600089810F900F900F900F900F90CF91DF918B
:101070000895DF93CF9300D00F92CDB7DEB79B8357
:101080008A8381E089838A819B81009711F4198288
:101090002FC0EA81FB8180818370882F90E0880FC8
:1010A000991FFC01E059FF4FA081B181EA81FB81CA
:1010B00080818370882F90E0880F991FFC01E05990
:1010C000FF4F0190F081E02D8081482FEA81FB8164
:1010D0008081869586958770282F30E081E090E0AA
:1010E000022E02C0880F991F0A94E2F784278C937E
:1010F00089810F900F900F90CF91DF910895DF932A
:10110000CF9300D00F92CDB7DEB78A836B8381E097
:1011100089838A81843010F019820DC08A81882FDA
:1011200090E0880F991FFC01E859FF4F0190F08172
:10113000E02D8B81808389810F900F900F90CF914C
:10114000DF910895DF93CF9300D000D0CDB7DEB705
:101150008A837C836B8381E089838A81843010F069
:1011600019820FC08A81882F90E0880F991FFC0197
:10117000E859FF4F0190F081E02D8081EB81FC81E7
:10118000808389810F900F900F900F90CF91DF9106
:101190000895DF93CF9300D00F92CDB7DEB78A8347
:1011A0006B8381E089838A81843010F019820DC0BD
:1011B0008A81882F90E0880F991FFC01E059FF4F2A
:1011C0000190F081E02D8B81808389810F900F90B9
:1011D0000F90CF91DF910895DF93CF9300D000D08F
:1011E000CDB7DEB78A837C836B8381E089838A8174
:1011F000843010F019820FC08A81882F90E0880F08
:10120000991FFC01E059FF4F0190F081E02D808192
:10121000EB81FC81808389810F900F900F900F905C
:10122000CF91DF910895DF93CF9300D0CDB7DEB794
:101230008A8381E089838A81843010F0198218C002
:101240008A81882F90E0880F991FFC01E059FF4F99
:10125000A081B1818A81882F90E0880F991FFC01BD
:10126000E059FF4F0190F081E02D808180958C93B3
:1012700089810F900F90CF91DF910895DF93CF93E5
:1012800000D000D0CDB7DEB79C838B8381E08A830A
:101290008B819C81009711F41A8213C019820EC0B1
:1012A0002B813C818981882F90E0820F931F61E020
:1012B0000E94A3068A8389818F5F89838981873011
:1012C00078F38A810F900F900F900F90CF91DF915C
:1012D0000895DF93CF93CDB7DEB76B970FB6F89431
:1012E000DEBF0FBECDBF9B838A836C8381E0898381
:1012F0008A819B81009719F08C818A3010F01982C5
:10130000A6C1EA81FB818781282F30E03B8F2A8F9D
:101310008A8D9B8D009739F02A8D3B8D21303105C8
:1013200009F4EDC093C18A819B81998F888F8C814C
:10133000882F90E0FC01E058FF4F8081882F90E0DB
:10134000817090701F8A009711F491E09F8B888DB7
:10135000998D6F890E946E07982F898189238983CF
:101360008A819B819C012F5F3F4F3E8B2D8B8C810F
:10137000882F90E0FC01E058FF4F80818695882FF0
:1013800090E0817090701C8A009711F431E03C8BE2
:101390008D899E896C890E946E07982F8981892387
:1013A00089838A819B819C012E5F3F4F3B8B2A8BD7
:1013B0008C81882F90E0FC01E058FF4F808186955A
:1013C0008695882F90E081709070198A009711F4AB
:1013D00031E0398B8A899B8969890E946E07982F31
:1013E0008981892389838A819B819C012D5F3F4F5D
:1013F000388B2F878C81882F90E0FC01E058FF4FBD
:101400008081869586958695882F90E08170907072
:101410001E86009711F431E03E878F8598896E858E
:101420000E946E07982F8981892389838A819B81F5
:101430009C012C5F3F4F3D872C878C81882F90E04B
:10144000FC01E058FF4F808182958F70882F90E0DB
:10145000817090701B86009711F431E03B878C857A
:101460009D856B850E946E07982F898189238983CA
:101470008A819B819C012B5F3F4F3A8729878C8112
:10148000882F90E0FC01E058FF4F8081829586957F
:101490008770882F90E0817090701886009711F403
:1014A00031E0388789859A8568850E946E07982F74
:1014B0008981892389838A819B819C012A5F3F4F8F
:1014C0003F832E838C81882F90E0FC01E058FF4FF2
:1014D00080818295869586958370882F90E08170B3
:1014E00090701D82009711F431E03D838E819F81C1
:1014F0006D810E946E07998189238983A8C04A81E2
:101500005B818C81882F90E0FC01E058FF4F808147
:10151000282F2170CA01622F0E946E07982F89819F
:10152000892389838A819B81AC014F5F5F4F8C81C6
:10153000882F90E0FC01E058FF4F80818695282F8E
:101540002170CA01622F0E946E07982F898189231A
:1015500089838A819B81AC014E5F5F4F8C81882F8C
:1015600090E0FC01E058FF4F808186958695282FFA
:101570002170CA01622F0E946E07982F89818923EA
:1015800089838A819B81AC014D5F5F4F8C81882F5D
:1015900090E0FC01E058FF4F808186958695869506
:1015A000282F2170CA01622F0E946E07982F89810F
:1015B000892389838A819B81AC014C5F5F4F8C8139
:1015C000882F90E0FC01E058FF4F808182958F705A
:1015D000282F2170CA01622F0E946E07982F8981DF
:1015E000892389838A819B81AC014B5F5F4F8C810A
:1015F000882F90E0FC01E058FF4F8081829586950E
:101600008770282F2170CA01622F0E946E07982FC1
:101610008981892389838A819B81AC014A5F5F4FDD
:101620008C81882F90E0FC01E058FF4F80818295EB
:10163000869586958370282F2170CA01622F0E949B
:101640006E07982F89818923898301C01982898136
:101650006B960FB6F894DEBF0FBECDBFCF91DF9172
:101660000895DF93CF9300D000D0CDB7DEB79C8331
:101670008B8381E089838B819C81009711F419828F
:1016800036C0EB81FC818081282F2370EB81FC81A7
:101690008081982F969596959770EB81FC8180813B
:1016A000382F32953695377031701A8223708A81BF
:1016B0008C7F822B8A83892F8770982F990F990F9F
:1016C0008A81837E892B8A838A8180628A83832FA1
:1016D0008170982F9295990F990F907C8A818F7BBA
:1016E000892B8A83CE0102960E949B05898389817A
:1016F0000F900F900F900F90CF91DF910895DF938F
:10170000CF9300D000D0CDB7DEB79C838B8381E030
:1017100089838B819C81009711F4198221C0EB8110
:10172000FC818081282F2370EB81FC818081982FA0
:101730009695969597701A8223708A818C7F822B5A
:101740008A83892F8770982F990F990F8A81837EBA
:10175000892B8A83CE01029661E00E946E078983FD
:1017600089810F900F900F900F90CF91DF91089586
:10177000DF93CF9300D000D0CDB7DEB79C838B83AF
:1017800081E089838B819C81009711F4198221C0AB
:10179000EB81FC818081282F2370EB81FC8180818B
:1017A000982F9695969597701A8223708A818C7FD0
:1017B000822B8A83892F8770982F990F990F8A819E
:1017C000837E892B8A83CE01029660E00E946E0799
:1017D000898389810F900F900F900F90CF91DF91A7
:1017E0000895DF93CF9300D000D0CDB7DEB79C83B0
:1017F0008B8381E089838B819C81009711F419820E
:1018000020C0EB81FC818081282F2370EB81FC813B
:101810008081982F9695969597701A8223708A8169
:101820008C7F822B8A83892F8770982F990F990F2D
:101830008A81837E892B8A83CE0102960E94390891
:10184000898389810F900F900F900F90CF91DF9136
:101850000895DF93CF9300D000D00F92CDB7DEB7BD
:101860009D838C8381E08B838C819D81009711F413
:101870001B8231C01A8219820FC02C813D8189815F
:101880009A81820F931F61E00E94A3068B83898156
:101890009A8101969A83898389819A8184309105FE
:1018A00064F31A82198212C08C819D819C012C5F85
:1018B0003F4F89819A81820F931F60E00E94A306A7
:1018C0008B8389819A8101969A83898389819A8100
:1018D000843091054CF38B810F900F900F900F90F7
:1018E0000F90CF91DF910895DF93CF93CDB7DEB7FF
:1018F00067970FB6F894DEBF0FBECDBF9D8B8C8B64
:101900007F8B6E8B81E08A8B8C899D89009711F487
:101910001A8AE4C01F86198A0EC02C893D898989DC
:10192000882F90E0820F931F60E00E946E078A8BE1
:1019300089898F5F898B8989843078F3198ACAC035
:101940002C893D898989882F90E0820F931F61E05F
:101950000E946E07982F8A8989238A8B80E090E005
:10196000A0E0B0E48B879C87AD87BE876B857C85C4
:101970008D859E8520E030E04AE755E40E941702FD
:10198000DC01CB018F839887A987BA876F8178851F
:1019900089859A8520E030E040E85FE30E9471038A
:1019A00088232CF481E090E09E838D833FC06F817B
:1019B000788589859A8520E03FEF4FE757E40E94BC
:1019C000110318164CF56B857C858D859E8520E06E
:1019D00030E040E251E40E941702DC01CB01BC017F
:1019E000CD010E944100DC01CB019E838D830FC09D
:1019F00080E991E09C838B838B819C810197F1F737
:101A00009C838B838D819E8101979E838D838D81A5
:101A10009E81009769F714C06F81788589859A85C2
:101A20000E944100DC01CB019E838D838D819E81CC
:101A30009A83898389819A810197F1F79A838983AF
:101A4000188A31C08C899D899C012C5F3F4F888901
:101A5000882F90E0820F931F9E012D5E3F4FB901AA
:101A60000E94F907982F8A8989238A8B8B89813074
:101A7000B9F48989482F50E08889282F30E0CA01BD
:101A8000880F991F880F991F820F931FFC01E6573B
:101A9000FF4F8081EE89FF89808381E08F8706C0B8
:101AA00088898F5F888B8889843060F22C893D8992
:101AB0008989882F90E0820F931F60E00E946E0753
:101AC000982F8A8989238A8B8F85813039F089897B
:101AD0008F5F898B8989843008F432CF8A89679631
:101AE0000FB6F894DEBF0FBECDBFCF91DF91089542
:101AF000DF93CF9300D000D0CDB7DEB79C838B832C
:101B000081E089838B819C81009711F4198234C014
:101B1000EB81FC818081282F2370EB81FC81808107
:101B2000982F969596959770EB81FC818081382F40
:101B3000329536953695337031701A8223708A81CA
:101B40008C7F822B8A83892F8770982F990F990F0A
:101B50008A81837E892B8A83832F8170982F929527
:101B6000990F990F907C8A818F7B892B8A83CE0174
:101B700002960E949B05898389810F900F900F9098
:101B80000F90CF91DF910895DF93CF93CDB7DEB75C
:101B90002B970FB6F894DEBF0FBECDBF9D838C830D
:101BA0007F836E8381E089838C819D81009711F40E
:101BB000198251C0EC81FD818081282F2370EC8136
:101BC000FD818081982F9695969597701B82237042
:101BD0008B818C7F822B8B83892F8770982F990F15
:101BE000990F8B81837E892B8B83CE0103969E0177
:101BF0002E5F3F4FB9010E94F9078983EC81FD8177
:101C000080818295869587708170282F30E03A8791
:101C1000298789859A85009731F029853A85213071
:101C2000310561F017C08A811886813011F031E0EA
:101C30003887EE81FF81888580830DC08A818B87FC
:101C40009B85992311F021E02B878B85EE81FF8105
:101C5000808301C0198289812B960FB6F894DEBF6C
:101C60000FBECDBFCF91DF910895DF93CF93CDB756
:101C7000DEB7AD970FB6F894DEBF0FBECDBF188AA2
:101C800088898360888B198A89898360898B89898F
:101C9000837E8460898B1A8A8A8983608A8B8A8989
:101CA000837E88608A8B1B8A8B8983608B8B8B8970
:101CB000837E8C608B8B1C8A8C8983608C8B8C8957
:101CC000837E80618C8B1D8A8D8983608D8B8D894D
:101CD000837E84618D8B1E8A8E8983608E8B8E8934
:101CE000837E88618E8B88E0FE017796DF01982FD6
:101CF0001D929A95E9F788898F8B8989888F8A89BF
:101D0000898F8B898A8F8C898B8F8D898C8F8E8917
:101D10008D8F81E08E8F1F8E8F8D8C7F81608F8F56
:101D200018A288A18C7F816088A388A1837E8460AB
:101D300088A319A289A18C7F816089A389A1837E50
:101D4000886089A31AA28AA18C7F81608AA38AA154
:101D5000837E8C608AA31BA28BA18C7F81608BA366
:101D60008BA1837E80618BA31CA28CA18C7F816060
:101D70008CA38CA1837E84618CA31DA28DA18C7FFA
:101D800081608DA38DA1837E88618DA388E0FE0193
:101D9000B696DF01982F1D929A95E9F78F8D8EA345
:101DA00088A18FA389A188A78AA189A78BA18AA7C7
:101DB0008CA18BA78DA18CA7CE0147960E943E09CE
:101DC000CE0186960E943E091F867FC0CE014796AF
:101DD0006F850E946909CE0186966F850E94690908
:101DE00080E090E0AAEFB3E48B879C87AD87BE8745
:101DF0006B857C858D859E8520E030E04AE755E443
:101E00000E941702DC01CB018F839887A987BA87CC
:101E10006F81788589859A8520E030E040E85FE32E
:101E20000E94710388232CF481E090E09E838D83CF
:101E30003FC06F81788589859A8520E03FEF4FE725
:101E400057E40E94110318164CF56B857C858D852F
:101E50009E8520E030E040E251E40E941702DC0160
:101E6000CB01BC01CD010E944100DC01CB019E836E
:101E70008D830FC080E991E09C838B838B819C8153
:101E80000197F1F79C838B838D819E8101979E83BF
:101E90008D838D819E81009769F714C06F8178854D
:101EA00089859A850E944100DC01CB019E838D8348
:101EB0008D819E819A83898389819A810197F1F727
:101EC0009A8389838F858F5F8F878F858A3008F407
:101ED0007DCF1F86FACF2F923F924F925F926F92E3
:101EE0007F928F929F92AF92BF92CF92DF92EF92AA
:101EF000FF920F931F93CF93DF93CDB7DEB7CA1B2B
:101F0000DB0B0FB6F894DEBF0FBECDBF09942A8855
:101F1000398848885F846E847D848C849B84AA84FD
:101F2000B984C884DF80EE80FD800C811B81AA818A
:101F3000B981CE0FD11D0FB6F894DEBF0FBECDBF55
:081F4000ED010895F894FFCFB4
:101F480000000000000000003A00370034003100B3
:101F58003B003800350032003900360033003000CD
:101F68003F065B4F666D7D077F6731323334353608
:0A1F78003738392A30234142434430
:00000001FF
