:100000000C942A000C947E070C94AB070C94D80730
:100010000C9447000C9447000C9447000C94470044
:100020000C9447000C9447000C9447000C94470034
:100030000C9447000C9447000C9447000C94470024
:100040000C9447000C9447000C9447000C94470014
:100050000C94470011241FBECFE5D8E0DEBFCDBF12
:1000600010E0A0E6B0E0EAE6F4E402C005900D92EC
:10007000AE39B107D9F710E0AEE9B0E001C01D928A
:10008000A53AB107E1F70E94291F0C9433220C9482
:100090000000EF92FF920F931F937B018C0120E0F1
:1000A00030E040E05FE40E94F50388238CF0C80153
:1000B000B70120E030E040E05FE40E94C1010E940F
:1000C00055049B01AC01205030404040504806C0D0
:1000D000C801B7010E9455049B01AC01B901CA01D6
:1000E0001F910F91FF90EF900895A0E0B0E0EBE733
:1000F000F0E00C945B1FDC012B01FA019C91923023
:1001000008F439C1EB018881823008F433C194309E
:1001100069F4843009F02FC111969C91119789815F
:10012000981709F428C1A3E6B0E025C1843009F48A
:1001300021C18230A9F4923009F01DC19A01AD01AC
:1001400088E0EA010990AE01E90109929E0181501F
:10015000C1F7E201898111969C918923818308C1AD
:10016000923009F407C112962D903C901397EB0141
:100170008A819B811496AD90BD90CD90DC901797AD
:10018000EC80FD800E811F819101281B390BB90184
:1001900037FF04C066277727621B730B6032710537
:1001A0000CF061C0121613066CF537014801062EDB
:1001B00004C096948794779467940A94D2F721E0C8
:1001C00030E040E050E004C0220F331F441F551FB1
:1001D0006A95D2F721503040404050402E213F21B7
:1001E00040235123211531054105510521F021E01E
:1001F00030E040E050E079018A01E628F72808293C
:1002000019293CC0232BD1F1260E371E350146019A
:10021000062E04C096948794779467940A94D2F734
:1002200021E030E040E050E004C0220F331F441FC3
:10023000551F6A95D2F721503040404050402A2146
:100240003B214C215D21211531054105510521F04E
:1002500021E030E040E050E059016A01A628B728CB
:10026000C828D9280BC0821593052CF01C01AA249C
:10027000BB24650103C0EE24FF24870111969C91E5
:10028000D20111968C91981709F445C0992339F041
:10029000A80197012A193B094C095D0906C0A6016E
:1002A00095012E193F09400B510B57FD08C01182D3
:1002B0003382228224833583468357831DC081E0A5
:1002C00081833382228288279927DC01821B930B4A
:1002D000A40BB50B84839583A683B7830DC0220F2F
:1002E000331F441F551F24833583468357838281E0
:1002F000938101979383828324813581468157813D
:10030000DA01C9010197A109B1098F5F9F4FAF4F72
:10031000BF4328F30BC0918333822282EA0CFB1C7B
:100320000C1D1D1DE482F5820683178383E0808304
:10033000248135814681578157FF1AC0C901AA27F8
:1003400097FDA095BA2F81709070A070B0705695EF
:10035000479537952795822B932BA42BB52B848318
:100360009583A683B7838281938101969383828349
:10037000DF0101C0D201CD01CDB7DEB7E2E10C94BF
:10038000771FA0E2B0E0E7ECF1E00C94671F69830F
:100390007A838B839C832D833E834F835887E9E048
:1003A000EE2EF12CEC0EFD1ECE010196B7010E943F
:1003B0007E058E010F5E1F4FCE010596B8010E948B
:1003C0007E058A8991E089278A8BC701B801AE0131
:1003D000475E5F4F0E9475000E94A904A096E6E068
:1003E0000C94831FA0E2B0E0E8EFF1E00C94671FEB
:1003F00069837A838B839C832D833E834F835887C5
:10040000F9E0EF2EF12CEC0EFD1ECE010196B701A6
:100410000E947E058E010F5E1F4FCE010596B8012A
:100420000E947E05C701B801AE01475E5F4F0E9482
:1004300075000E94A904A096E6E00C94831FA0E238
:10044000B0E0E5E2F2E00C945B1F69837A838B8372
:100450009C832D833E834F835887CE010196BE0136
:10046000675F7F4F0E947E05CE010596BE016F5EDD
:100470007F4F0E947E059985923088F0898982306D
:10048000C8F0943019F4823051F404C0843029F457
:10049000923081F483E690E0C6C0923049F420E0C7
:1004A0009A858A89981321E02A87CE010996BBC0D4
:1004B000823049F420E09A858A89981321E02A8BBA
:1004C000CE014196B0C02D843E844F8458886D88FB
:1004D0007E888F88988CEE24FF248701AA24BB2471
:1004E000650140E050E060E070E0E0E0F0E0C10174
:1004F00081709070892BE9F0E60CF71C081D191D1E
:100500009A01AB012A0D3B1D4C1D5D1D80E090E062
:10051000A0E0B0E0E614F7040805190520F481E036
:1005200090E0A0E0B0E0BA01A901480F591F6A1F8E
:100530007B1FAA0CBB1CCC1CDD1C97FE08C081E0F5
:1005400090E0A0E0B0E0A82AB92ACA2ADB2A3196B6
:10055000E032F10549F0660C771C881C991C569412
:10056000479437942794C3CFFA85EA892B893C892D
:100570008B859C85280F391F2E5F3F4F17C0CA01FE
:1005800081709070892B61F016950795F794E79428
:1005900080E090E0A0E0B0E8E82AF92A0A2B1B2BC3
:1005A00076956795579547952F5F3F4F77FDE7CF36
:1005B0000CC0440F551F661F771F17FD4160EE0CDE
:1005C000FF1C001F111F21503040403090E05907A0
:1005D00090E0690790E4790760F32B8F3C8FDB0193
:1005E000CA018F779070A070B07080349105A1051A
:1005F000B10561F447FD0AC0E114F10401051105DC
:1006000029F0405C5F4F6F4F7F4F40781A8EFE1786
:1006100011F081E08A8F4D8F5E8F6F8F78A383E01A
:10062000898FCE0149960E94A904A096E2E10C941C
:10063000771FA8E1B0E0EFE1F3E00C94631F69835A
:100640007A838B839C832D833E834F835887B9E0C5
:10065000EB2EF12CEC0EFD1ECE010196B7010E948F
:100660007E058E010F5E1F4FCE010596B8010E94D8
:100670007E052985223008F47EC03989323010F495
:10068000B8017CC08A859A8989278A87243011F02D
:10069000223031F4231709F06EC063E670E06EC0BB
:1006A000343039F41D861E861F86188A1C861B86E8
:1006B00004C0323021F484E08987B7015FC02B8504
:1006C0003C858B899C89281B390B3C872B87ED84C3
:1006D000FE840F851889AD88BE88CF88D88CEA142F
:1006E000FB040C051D0540F4EE0CFF1C001F111F40
:1006F000215030403C872B8720E030E040E050E044
:1007000080E090E0A0E0B0E460E070E0EA14FB0478
:100710000C051D0540F0282B392B4A2B5B2BEA18C2
:10072000FB080C091D09B695A79597958795EE0CC2
:10073000FF1C001F111F6F5F7F4F6F31710531F775
:10074000DA01C9018F779070A070B0708034910584
:10075000A105B10561F427FD0AC0E114F10401050A
:10076000110529F0205C3F4F4F4F5F4F20782D87B8
:100770003E874F87588BBE01675F7F4FCB010E943A
:10078000A9046896EAE00C947F1FA8E1B0E0EBECC6
:10079000F3E00C94671F69837A838B839C832D839A
:1007A0003E834F83588789E0E82EF12CEC0EFD1E26
:1007B000CE010196B7010E947E058E010F5E1F4F8C
:1007C000CE010596B8010E947E058985823040F0F1
:1007D0008989823028F0C701B8010E94F60501C05E
:1007E0008FEF6896E6E00C94831FA8E1B0E0EBEF92
:1007F000F3E00C94671F69837A838B839C832D833A
:100800003E834F83588789E0E82EF12CEC0EFD1EC5
:10081000CE010196B7010E947E058E010F5E1F4F2B
:10082000CE010596B8010E947E058985823040F090
:100830008989823028F0C701B8010E94F60501C0FD
:100840008FEF6896E6E00C94831FA8E1B0E0EBE23E
:10085000F4E00C94671F69837A838B839C832D83D8
:100860003E834F83588789E0E82EF12CEC0EFD1E65
:10087000CE010196B7010E947E058E010F5E1F4FCB
:10088000CE010596B8010E947E058985823040F030
:100890008989823028F0C701B8010E94F60501C09D
:1008A00081E06896E6E00C94831FACE0B0E0EBE5F5
:1008B000F4E00C946B1F69837A838B839C83CE0155
:1008C0000196BE016B5F7F4F0E947E058D81823055
:1008D00061F1823050F1843021F48E81882351F10E
:1008E0002EC02F81388537FD20C06E812F31310514
:1008F0001CF06623F9F023C08EE190E0821B930B7D
:1009000029853A854B855C8504C056954795379572
:1009100027958A95D2F76623B1F05095409530958A
:1009200021953F4F4F4F5F4F0EC020E030E040E039
:1009300050E009C02FEF3FEF4FEF5FE704C020E02A
:1009400030E040E050E8B901CA012C96E2E00C9496
:10095000871FDF92EF92FF920F931F93FC01E480B9
:10096000F58006811781D1808081823048F480E053
:1009700090E0A0E1B0E0E82AF92A0A2B1B2BA5C0E1
:10098000843009F49FC0823021F4EE24FF248701D3
:1009900005C0E114F1040105110519F4E0E0F0E0EF
:1009A00096C0628173819FEF623879070CF05BC05B
:1009B00022E83FEF261B370B2A3131052CF020E0CF
:1009C00030E040E050E02AC0B801A701022E04C088
:1009D00076956795579547950A94D2F781E090E010
:1009E000A0E0B0E004C0880F991FAA1FBB1F2A9582
:1009F000D2F70197A109B1098E219F21A023B1232C
:100A00000097A105B10521F081E090E0A0E0B0E001
:100A10009A01AB01282B392B4A2B5B2BDA01C90138
:100A20008F779070A070B07080349105A105B105EA
:100A300039F427FF09C0205C3F4F4F4F5F4F04C080
:100A4000215C3F4F4F4F5F4FE0E0F0E02030A0E0EF
:100A50003A07A0E04A07A0E45A0710F0E1E0F0E00E
:100A600079018A0127C06038710564F5FB01E158FE
:100A7000FF4FD801C7018F779070A070B07080349D
:100A80009105A105B10539F4E7FE0DC080E490E0C1
:100A9000A0E0B0E004C08FE390E0A0E0B0E0E80E9A
:100AA000F91E0A1F1B1F17FF05C016950795F7941F
:100AB000E794319687E016950795F794E7948A9521
:100AC000D1F705C0EE24FF248701EFEFF0E06E2F91
:100AD000679566276795902F9F77D794DD24D794E5
:100AE0008E2F8695492F462B582F5D29B701CA01B5
:100AF0001F910F91FF90EF90DF900895FC01DB01B3
:100B0000408151812281622F6F7770E0221F22275E
:100B1000221F9381892F880F822B282F30E0991F65
:100B20009927991F11969C93119721153105A9F5C5
:100B3000411551056105710511F482E037C082E865
:100B40009FEF13969C938E9312979A01AB0167E0E7
:100B5000220F331F441F551F6A95D1F783E08C93F2
:100B60000DC0220F331F441F551F12968D919C916B
:100B70001397019713969C938E931297203080E0E1
:100B8000380780E0480780E4580758F314962D93FF
:100B90003D934D935C93179708952F3F310579F45A
:100BA000411551056105710519F484E08C93089590
:100BB00064FF03C081E08C9312C01C9210C02F57B9
:100BC000304013963C932E93129783E08C9387E0EA
:100BD000440F551F661F771F8A95D1F770641496CE
:100BE0004D935D936D937C93179708951F93DC014C
:100BF000FB019C91923008F447C08081823008F458
:100C000043C0943051F411961C91843099F5818140
:100C1000682F70E0611B71093FC0843021F0923071
:100C200031F48230B9F18181882389F12DC0119688
:100C30001C9111978230F1F081811817D9F4129626
:100C40002D913C911397828193818217930794F0A1
:100C500028173907BCF014968D919D910D90BC9189
:100C6000A02D2481358146815781281739074A07ED
:100C70005B0718F4112341F00AC082179307A407F9
:100C8000B50740F4112319F061E070E005C06FEF83
:100C90007FEF02C060E070E0CB011F910895DF9309
:100CA000CF9300D000D0CDB7DEB78A8381E08983AF
:100CB0008A81282F30E03C832B838B819C8181307B
:100CC0009105E9F02B813C81223031052CF48B8198
:100CD0009C81009761F02DC02B813C812230310531
:100CE000B9F08B819C8183309105D9F022C0A5E5B4
:100CF000B0E0E5E5F0E080818C7F8C931BC0A5E53A
:100D0000B0E0E5E5F0E080818C7F81608C9312C0DB
:100D1000A5E5B0E0E5E5F0E080818C7F82608C9312
:100D200009C0A5E5B0E0E5E5F0E0808183608C9343
:100D300001C0198289810F900F900F900F90CF9171
:100D4000DF910895DF93CF9300D000D0CDB7DEB709
:100D50008A8381E089838A81282F30E03C832B833A
:100D60008B819C8181309105E9F02B813C8122307F
:100D700031052CF48B819C81009761F02DC02B8173
:100D80003C8122303105B9F08B819C818330910503
:100D9000D9F022C0A5E5B0E0E5E5F0E08081837FF1
:100DA0008C931BC0A5E5B0E0E5E5F0E08081837F92
:100DB00084608C9312C0A5E5B0E0E5E5F0E08081A9
:100DC000837F88608C9309C0A5E5B0E0E5E5F0E09D
:100DD00080818C608C9301C0198289810F900F9063
:100DE0000F900F90CF91DF910895DF93CF9300D0B4
:100DF00000D0CDB7DEB78A8381E089838A81282F2E
:100E000030E03C832B838B819C818230910531F0D3
:100E10002B813C812330310549F010C0A4E5B0E0BE
:100E2000E4E5F0E080818F7B8C9309C0A4E5B0E01D
:100E3000E4E5F0E0808180648C9301C019828981AF
:100E40000F900F900F900F90CF91DF910895DF9347
:100E5000CF9300D00F92CDB7DEB79B838A8381E01A
:100E600089838A819B81009711F4198206C08A8147
:100E70009B8190939F0080939E0089810F900F909B
:100E80000F90CF91DF910895DF93CF9300D00F9211
:100E9000CDB7DEB79B838A8381E089838A819B817A
:100EA000009711F4198206C08A819B819093A1005A
:100EB0008093A00089810F900F900F90CF91DF91C8
:100EC0000895DF93CF9300D00F92CDB7DEB79B8309
:100ED0008A8381E089838A819B81009711F419823A
:100EE00006C08A819B819093A3008093A200898190
:100EF0000F900F900F90CF91DF9108951F920F9256
:100F00000FB60F9211242F933F934F935F936F93DC
:100F10007F938F939F93AF93BF93EF93FF93DF9351
:100F2000CF93CDB7DEB7E0919E00F0919F00099579
:100F3000CF91DF91FF91EF91BF91AF919F918F91F1
:100F40007F916F915F914F913F912F910F900FBEC5
:100F50000F901F9018951F920F920FB60F921124A9
:100F60002F933F934F935F936F937F938F939F93B1
:100F7000AF93BF93EF93FF93DF93CF93CDB7DEB7DC
:100F8000E091A000F091A1000995CF91DF91FF9130
:100F9000EF91BF91AF919F918F917F916F915F91F1
:100FA0004F913F912F910F900FBE0F901F9018956A
:100FB0001F920F920FB60F9211242F933F934F93CE
:100FC0005F936F937F938F939F93AF93BF93EF93B1
:100FD000FF93DF93CF93CDB7DEB7E091A200F091FE
:100FE000A3000995CF91DF91FF91EF91BF91AF9150
:100FF0009F918F917F916F915F914F913F912F9131
:101000000F900FBE0F901F901895DF93CF93CDB721
:10101000DEB727970FB6F894DEBF0FBECDBF9B8318
:101020008A8381E089838A819B81009711F41982E8
:10103000EAC0EA81FB818081829586958770817004
:10104000282F30E03F832E838E819F81009731F0DF
:101050002E813F812130310591F15FC0EA81FB8112
:1010600080818370882F90E0880F991FFC01E559DB
:10107000FF4FA081B181EA81FB8180818370882F3D
:1010800090E0880F991FFC01E559FF4F0190F08116
:10109000E02D8081482FEA81FB81808186958695AD
:1010A0008770282F30E081E090E0022E02C0880F88
:1010B000991F0A94E2F7809584238C932EC0EA81CD
:1010C000FB8180818370882F90E0880F991FFC013D
:1010D000E559FF4FA081B181EA81FB818081837056
:1010E000882F90E0880F991FFC01E559FF4F019070
:1010F000F081E02D8081482FEA81FB8180818695F7
:1011000086958770282F30E081E090E002C0880F3C
:10111000991F2A95E2F7842B8C93EA81FB818081C9
:1011200082958695869583708170282F30E03D8367
:101130002C838C819D81009731F02C813D81213061
:10114000310591F160C0EA81FB8180818370882F35
:1011500090E0880F991FFC01ED58FF4FA081B181ED
:10116000EA81FB8180818370882F90E0880F991F2E
:10117000FC01ED58FF4F0190F081E02D8081482F58
:10118000EA81FB818081869586958770282F30E0E3
:1011900081E090E0022E02C0880F991F0A94E2F7C6
:1011A000809584238C932FC0EA81FB81808183709A
:1011B000882F90E0880F991FFC01ED58FF4FA08108
:1011C000B181EA81FB8180818370882F90E0880F54
:1011D000991FFC01ED58FF4F0190F081E02D8081B7
:1011E000482FEA81FB818081869586958770282F1C
:1011F00030E081E090E0022E02C0880F991F0A942F
:10120000E2F7842B8C93898127960FB6F894DEBF82
:101210000FBECDBFCF91DF910895DF93CF9300D064
:1012200000D000D0CDB7DEB79B838A836C8381E08A
:1012300089838A819B81009711F419826FC08C8108
:10124000282F30E03E832D838D819E81009731F0E1
:101250002D813E812130310591F160C0EA81FB8111
:1012600080818370882F90E0880F991FFC01E559D9
:10127000FF4FA081B181EA81FB8180818370882F3B
:1012800090E0880F991FFC01E559FF4F0190F08114
:10129000E02D8081482FEA81FB81808186958695AB
:1012A0008770282F30E081E090E0022E02C0880F86
:1012B000991F0A94E2F7809584238C932FC0EA81CA
:1012C000FB8180818370882F90E0880F991FFC013B
:1012D000E559FF4FA081B181EA81FB818081837054
:1012E000882F90E0880F991FFC01E559FF4F01906E
:1012F000F081E02D8081482FEA81FB8180818695F5
:1013000086958770282F30E081E090E0022E02C0A1
:10131000880F991F0A94E2F7842B8C938981269673
:101320000FB6F894DEBF0FBECDBFCF91DF91089509
:10133000DF93CF9300D000D00F92CDB7DEB79B8361
:101340008A837D836C8381E089838A819B81009776
:1013500011F4198224C0EA81FB8180818370882F77
:1013600090E0880F991FFC01E559FF4F0190F08133
:10137000E02D8081282F30E0EA81FB8180818695F5
:1013800086958770882F90E0A90102C055954795F2
:101390008A95E2F7CA018170EC81FD8180838981A1
:1013A0000F900F900F900F900F90CF91DF910895B5
:1013B000DF93CF9300D000D000D0CDB7DEB79B83B2
:1013C0008A836C8381E089838A819B81009711F4F1
:1013D00019826FC08C81282F30E03E832D838D8150
:1013E0009E81009731F02D813E812130310591F1B0
:1013F00060C0EA81FB8180818370882F90E0880F34
:10140000991FFC01ED58FF4FA081B181EA81FB815A
:1014100080818370882F90E0880F991FFC01ED5820
:10142000FF4F0190F081E02D8081482FEA81FB8100
:101430008081869586958770282F30E081E090E046
:10144000022E02C0880F991F0A94E2F78095842328
:101450008C932FC0EA81FB8180818370882F90E07C
:10146000880F991FFC01ED58FF4FA081B181EA81DF
:10147000FB8180818370882F90E0880F991FFC0189
:10148000ED58FF4F0190F081E02D8081482FEA81D7
:10149000FB818081869586958770282F30E081E0DA
:1014A00090E0022E02C0880F991F0A94E2F7842B65
:1014B0008C93898126960FB6F894DEBF0FBECDBF00
:1014C000CF91DF910895DF93CF9300D000D00F929A
:1014D000CDB7DEB79B838A837D836C8381E089836C
:1014E0008A819B81009711F4198224C0EA81FB81D3
:1014F00080818370882F90E0880F991FFC01E55848
:10150000FF4F0190F081E02D8081282F30E0EA81AB
:10151000FB818081869586958770882F90E0A90150
:1015200002C0559547958A95E2F7CA018170EC8112
:10153000FD81808389810F900F900F900F900F9005
:10154000CF91DF910895DF93CF9300D00F92CDB765
:10155000DEB79B838A8381E089838A819B810097A0
:1015600011F419822FC0EA81FB8180818370882F5A
:1015700090E0880F991FFC01ED58FF4FA081B181C9
:10158000EA81FB8180818370882F90E0880F991F0A
:10159000FC01ED58FF4F0190F081E02D8081482F34
:1015A000EA81FB818081869586958770282F30E0BF
:1015B00081E090E0022E02C0880F991F0A94E2F7A2
:1015C00084278C9389810F900F900F90CF91DF919A
:1015D0000895DF93CF9300D00F92CDB7DEB78A8303
:1015E0006B8381E089838A81843010F019820DC079
:1015F0008A81882F90E0880F991FFC01E559FF4FE1
:101600000190F081E02D8B81808389810F900F9074
:101610000F90CF91DF910895DF93CF9300D000D04A
:10162000CDB7DEB78A837C836B8381E089838A812F
:10163000843010F019820FC08A81882F90E0880FC3
:10164000991FFC01E559FF4F0190F081E02D808149
:10165000EB81FC81808389810F900F900F900F9018
:10166000CF91DF910895DF93CF9300D00F92CDB744
:10167000DEB78A836B8381E089838A81843010F0AE
:1016800019820DC08A81882F90E0880F991FFC0174
:10169000ED58FF4F0190F081E02D8B81808389818F
:1016A0000F900F900F90CF91DF910895DF93CF931C
:1016B00000D000D0CDB7DEB78A837C836B8381E016
:1016C00089838A81843010F019820FC08A81882F23
:1016D00090E0880F991FFC01ED58FF4F0190F081B9
:1016E000E02D8081EB81FC81808389810F900F90B8
:1016F0000F900F90CF91DF910895DF93CF9300D09B
:10170000CDB7DEB78A8381E089838A81843010F087
:10171000198218C08A81882F90E0880F991FFC01D8
:10172000ED58FF4FA081B1818A81882F90E0880F0A
:10173000991FFC01ED58FF4F0190F081E02D808151
:1017400080958C9389810F900F90CF91DF910895B0
:10175000DF93CF9300D000D0CDB7DEB79C838B83CF
:1017600081E08A838B819C81009711F41A8213C0D7
:1017700019820EC02B813C818981882F90E0820FD5
:10178000931F61E00E940D098A8389818F5F89839D
:101790008981873078F38A810F900F900F900F9096
:1017A000CF91DF910895DF93CF93CDB7DEB76B97DD
:1017B0000FB6F894DEBF0FBECDBF9B838A836C83C8
:1017C00081E089838A819B81009719F08C818A301E
:1017D00010F01982A6C1EA81FB818781282F30E0B1
:1017E0003B8F2A8F8A8D9B8D009739F02A8D3B8DF8
:1017F0002130310509F4EDC093C18A819B81998F15
:10180000888F8C81882F90E0FC01ED56FF4F8081FE
:10181000882F90E0817090701F8A009711F491E0FA
:101820009F8B888D998D6F890E94D809982F898107
:10183000892389838A819B819C012F5F3F4F3E8B47
:101840002D8B8C81882F90E0FC01ED56FF4F80811D
:101850008695882F90E0817090701C8A009711F413
:1018600031E03C8B8D899E896C890E94D809982F24
:101870008981892389838A819B819C012E5F3F4FC7
:101880003B8B2A8B8C81882F90E0FC01ED56FF4F1B
:10189000808186958695882F90E081709070198A56
:1018A000009711F431E0398B8A899B8969890E94FC
:1018B000D809982F8981892389838A819B819C01FA
:1018C0002D5F3F4F388B2F878C81882F90E0FC0154
:1018D000ED56FF4F8081869586958695882F90E0FE
:1018E000817090701E86009711F431E03E878F85DD
:1018F00098896E850E94D809982F898189238983C8
:101900008A819B819C012C5F3F4F3D872C878C8176
:10191000882F90E0FC01ED56FF4F808182958F70FB
:10192000882F90E0817090701B86009711F431E051
:101930003B878C859D856B850E94D809982F89816E
:10194000892389838A819B819C012B5F3F4F3A8742
:1019500029878C81882F90E0FC01ED56FF4F808114
:10196000829586958770882F90E081709070188698
:10197000009711F431E0388789859A8568850E943F
:10198000D809982F8981892389838A819B819C0129
:101990002A5F3F4F3F832E838C81882F90E0FC018C
:1019A000ED56FF4F80818295869586958370882FAE
:1019B00090E0817090701D82009711F431E03D83BA
:1019C0008E819F816D810E94D809998189238983A5
:1019D000A8C04A815B818C81882F90E0FC01ED5684
:1019E000FF4F8081282F2170CA01622F0E94D809E1
:1019F000982F8981892389838A819B81AC014F5FDC
:101A00005F4F8C81882F90E0FC01ED56FF4F808165
:101A10008695282F2170CA01622F0E94D809982F1D
:101A20008981892389838A819B81AC014E5F5F4FC5
:101A30008C81882F90E0FC01ED56FF4F80818695C8
:101A40008695282F2170CA01622F0E94D809982FED
:101A50008981892389838A819B81AC014D5F5F4F96
:101A60008C81882F90E0FC01ED56FF4F8081869598
:101A700086958695282F2170CA01622F0E94D80969
:101A8000982F8981892389838A819B81AC014C5F4E
:101A90005F4F8C81882F90E0FC01ED56FF4F8081D5
:101AA00082958F70282F2170CA01622F0E94D80959
:101AB000982F8981892389838A819B81AC014B5F1F
:101AC0005F4F8C81882F90E0FC01ED56FF4F8081A5
:101AD000829586958770282F2170CA01622F0E94F7
:101AE000D809982F8981892389838A819B81AC01B8
:101AF0004A5F5F4F8C81882F90E0FC01ED56FF4FCD
:101B000080818295869586958370282F2170CA01E1
:101B1000622F0E94D809982F89818923898301C067
:101B2000198289816B960FB6F894DEBF0FBECDBFC8
:101B3000CF91DF910895DF93CF9300D000D0CDB740
:101B4000DEB79C838B8381E089838B819C810097A6
:101B500011F4198236C0EB81FC818081282F23701B
:101B6000EB81FC818081982F969596959770EB81FB
:101B7000FC818081382F32953695377031701A820A
:101B800023708A818C7F822B8A83892F8770982F7C
:101B9000990F990F8A81837E892B8A838A8180623B
:101BA0008A83832F8170982F9295990F990F907C3B
:101BB0008A818F7B892B8A83CE0102960E94050839
:101BC000898389810F900F900F900F90CF91DF91B3
:101BD0000895DF93CF9300D000D0CDB7DEB79C83BC
:101BE0008B8381E089838B819C81009711F419821A
:101BF00021C0EB81FC818081282F2370EB81FC8147
:101C00008081982F9695969597701A8223708A8175
:101C10008C7F822B8A83892F8770982F990F990F39
:101C20008A81837E892B8A83CE01029661E00E949D
:101C3000D809898389810F900F900F900F90CF91D1
:101C4000DF910895DF93CF9300D000D0CDB7DEB7FA
:101C50009C838B8381E089838B819C81009711F425
:101C6000198221C0EB81FC818081282F2370EB81B8
:101C7000FC818081982F9695969597701A82237093
:101C80008A818C7F822B8A83892F8770982F990F66
:101C9000990F8A81837E892B8A83CE01029660E028
:101CA0000E94D809898389810F900F900F900F901F
:101CB000CF91DF910895DF93CF9300D000D0CDB7BF
:101CC000DEB79C838B8381E089838B819C81009725
:101CD00011F4198220C0EB81FC818081282F2370B0
:101CE000EB81FC818081982F9695969597701A824A
:101CF00023708A818C7F822B8A83892F8770982F0B
:101D0000990F990F8A81837E892B8A83CE0102964F
:101D10000E94A30A898389810F900F900F900F90E2
:101D2000CF91DF910895DF93CF93CDB7DEB7E897DA
:101D30000FB6F894DEBF0FBECDBF98AF8FAB81E07A
:101D40008EAB8FA998AD009711F41EAA13C21DAADD
:101D50008FA998AD61E00E940D098EAB8FA998AD57
:101D6000019661E00E940D09982F8EA989238EAB00
:101D700014C08FA998AD9C012E5F3F4F8DA9882F6D
:101D800090E0820F931F61E00E940D09982F8EA9A9
:101D900089238EAB8DA98F5F8DAB8DA9843048F3DD
:101DA00080E090E0A0EAB1E489AB9AABABABBCAB0E
:101DB00069A97AA98BA99CA920E030E04AE755E4FB
:101DC0000E941F02DC01CB018DA79EA7AFA7B8AB75
:101DD0006DA57EA58FA598A920E030E040E85FE3DF
:101DE0000E94250488232CF481E090E09CA78BA717
:101DF0003FC06DA57EA58FA598A920E03FEF4FE7D6
:101E000057E40E94C50318164CF569A97AA98BA955
:101E10009CA920E030E040E251E40E941F02DC0176
:101E2000CB01BC01CD010E944900DC01CB019CA784
:101E30008BA70FC080E991E09AA789A789A59AA5E9
:101E40000197F1F79AA789A78BA59CA501979CA755
:101E50008BA78BA59CA5009769F714C06DA57EA5DF
:101E60008FA598A90E944900DC01CB019CA78BA7F4
:101E70008BA59CA598A78FA38FA198A50197F1F793
:101E800098A78FA38FA998AD63E30E94E010982FC5
:101E90008EA989238EAB8FA998AD62E30E94E010D2
:101EA000982F8EA989238EAB8FA998AD68E20E94E6
:101EB000E010982F8EA989238EAB80E090E0A0EAF5
:101EC000B0E48BA39CA3ADA3BEA36BA17CA18DA109
:101ED0009EA120E030E04AE755E40E941F02DC01A9
:101EE000CB018F8F98A3A9A3BAA36F8D78A189A1E5
:101EF0009AA120E030E040E85FE30E9425048823B7
:101F00002CF481E090E09E8F8D8F3FC06F8D78A183
:101F100089A19AA120E03FEF4FE757E40E94C50353
:101F200018164CF56BA17CA18DA19EA120E030E09C
:101F300040E251E40E941F02DC01CB01BC01CD0153
:101F40000E944900DC01CB019E8F8D8F0FC080E97C
:101F500091E09C8F8B8F8B8D9C8D0197F1F79C8FDF
:101F60008B8F8D8D9E8D01979E8F8D8F8D8D9E8DEC
:101F7000009769F714C06F8D78A189A19AA10E947A
:101F80004900DC01CB019E8F8D8F8D8D9E8D9A8FA8
:101F9000898F898D9A8D0197F1F79A8F898F8FA9F3
:101FA00098AD68E20E94E010982F8EA989238EAB2D
:101FB00080E090E0A6E1B3E48D8B9E8BAF8BB88F71
:101FC0006D897E898F89988D2BEA3AEA4AEA50E436
:101FD0000E941F02DC01CB01898B9A8BAB8BBC8BDF
:101FE00069897A898B899C8920E030E040E85FE349
:101FF0000E94250488231CF481E0888B91C06989A4
:102000007A898B899C8920E030E04FE753E40E9475
:10201000C50318160CF07BC06D897E898F89988D59
:1020200020E030E04AE754E40E941903DC01CB01D0
:102030008C879D87AE87BF876C857D858E859F85C4
:1020400020E030E04AE755E40E941F02DC01CB01AA
:1020500088879987AA87BB87688579858A859B85C4
:1020600020E030E040E85FE30E94250488232CF460
:1020700081E090E09F838E833FC0688579858A8563
:102080009B8520E03FEF4FE757E40E94C5031816F9
:102090004CF56C857D858E859F8520E030E040E2A3
:1020A00051E40E941F02DC01CB01BC01CD010E9462
:1020B0004900DC01CB019F838E830FC080E991E052
:1020C0009D838C838C819D810197F1F79D838C8307
:1020D0008E819F8101979F838E838E819F81009740
:1020E00069F724C0688579858A859B850E944900A7
:1020F000DC01CB019F838E838E819F819B838A83AA
:102100008A819B810197F1F79B838A830FC069893C
:102110007A898B899C890E944900DC01CB01888BDC
:102120008889898389818A95F1F789838FA998ADF8
:1021300068E20E94E010982F8EA989238EAB8FA9A8
:1021400098AD6CE00E94E010982F8EA989238EAB89
:102150008FA998AD66E00E94E010982F8EA9892380
:102160008EAB8FA998AD61E00E94E010982F8EA9E8
:1021700089238EAB8EA9E8960FB6F894DEBF0FBE0A
:10218000CDBFCF91DF910895DF93CF9300D00F9211
:10219000CDB7DEB79B838A8381E089838A819B8167
:1021A000009711F4198205C08A819B8161E00E9429
:1021B000E01089810F900F900F90CF91DF910895DB
:1021C000DF93CF93CDB7DEB762970FB6F894DEBF3B
:1021D0000FBECDBF998B888B6A8B81E08F878889F2
:1021E0009989009711F41F86A1C08889998960E0B8
:1021F0000E94D809982F8F8589238F878A89282F55
:1022000022952F7088899989622F0E94A41A982F8D
:102210008F8589238F87888999890E94F71A982F3B
:102220008F8589238F87888999896A890E94A41A52
:10223000982F8F8589238F87888999890E94F71A1B
:10224000982F8F8589238F8780E090E0A0E0B0E40D
:102250008B879C87AD87BE876B857C858D859E85AA
:1022600020E030E04AE755E40E941F02DC01CB0188
:102270008F839887A987BA876F81788589859A85A2
:1022800020E030E040E85FE30E94250488232CF43E
:1022900081E090E09E838D833FC06F817885898542
:1022A0009A8520E03FEF4FE757E40E94C5031816D8
:1022B0004CF56B857C858D859E8520E030E040E285
:1022C00051E40E941F02DC01CB01BC01CD010E9440
:1022D0004900DC01CB019E838D830FC080E991E032
:1022E0009C838B838B819C810197F1F79C838B83EB
:1022F0008D819E8101979E838D838D819E81009724
:1023000069F714C06F81788589859A850E94490094
:10231000DC01CB019E838D838D819E819A8389838D
:1023200089819A810197F1F79A8389838F856296D3
:102330000FB6F894DEBF0FBECDBFCF91DF910895E9
:10234000DF93CF93CDB7DEB762970FB6F894DEBFB9
:102350000FBECDBF998B888B6A8B81E08F87888970
:102360009989009711F41F86A1C08889998961E035
:102370000E94D809982F8F8589238F878A89282FD3
:1023800022952F7088899989622F0E94A41A982F0C
:102390008F8589238F87888999890E94F71A982FBA
:1023A0008F8589238F87888999896A890E94A41AD1
:1023B000982F8F8589238F87888999890E94F71A9A
:1023C000982F8F8589238F8780E090E0A0E0B0E48C
:1023D0008B879C87AD87BE876B857C858D859E8529
:1023E00020E030E04AE755E40E941F02DC01CB0107
:1023F0008F839887A987BA876F81788589859A8521
:1024000020E030E040E85FE30E94250488232CF4BC
:1024100081E090E09E838D833FC06F8178858985C0
:102420009A8520E03FEF4FE757E40E94C503181656
:102430004CF56B857C858D859E8520E030E040E203
:1024400051E40E941F02DC01CB01BC01CD010E94BE
:102450004900DC01CB019E838D830FC080E991E0B0
:102460009C838B838B819C810197F1F79C838B8369
:102470008D819E8101979E838D838D819E810097A2
:1024800069F714C06F81788589859A850E94490013
:10249000DC01CB019E838D838D819E819A8389830C
:1024A00089819A810197F1F79A8389838F85629652
:1024B0000FB6F894DEBF0FBECDBFCF91DF91089568
:1024C000DF93CF93CDB7DEB764970FB6F894DEBF36
:1024D0000FBECDBF998B888B6A8B4B8B2C8B81E089
:1024E0008F8788899989009711F41F86A7C08889EA
:1024F00099896A894B890E94B4198889998961E010
:102500000E94D809982F8F8589238F878C89282F3F
:1025100022952F7088899989622F0E94A41A982F7A
:102520008F8589238F87888999890E94F71A982F28
:102530008F8589238F87888999896C890E94A41A3D
:10254000982F8F8589238F87888999890E94F71A08
:10255000982F8F8589238F8780E090E0A0E0B0E4FA
:102560008B879C87AD87BE876B857C858D859E8597
:1025700020E030E04AE755E40E941F02DC01CB0175
:102580008F839887A987BA876F81788589859A858F
:1025900020E030E040E85FE30E94250488232CF42B
:1025A00081E090E09E838D833FC06F81788589852F
:1025B0009A8520E03FEF4FE757E40E94C5031816C5
:1025C0004CF56B857C858D859E8520E030E040E272
:1025D00051E40E941F02DC01CB01BC01CD010E942D
:1025E0004900DC01CB019E838D830FC080E991E01F
:1025F0009C838B838B819C810197F1F79C838B83D8
:102600008D819E8101979E838D838D819E81009710
:1026100069F714C06F81788589859A850E94490081
:10262000DC01CB019E838D838D819E819A8389837A
:1026300089819A810197F1F79A8389838F856496BE
:102640000FB6F894DEBF0FBECDBFCF91DF910895D6
:10265000DF93CF9300D000D00F92CDB7DEB79B832E
:102660008A837D836C8381E089838A819B81009743
:1026700021F08C819D81009779F4198212C0EC8140
:10268000FD8120818C819D8101969D838C838A812F
:102690009B81622F0E94A011EC81FD8180818823A3
:1026A00071F789810F900F900F900F900F90CF913D
:1026B000DF910895DF93CF93CDB7DEB727970FB69D
:1026C000F894DEBF0FBECDBF9B838A836C834D839E
:1026D0003F832E8381E089838A819B81009721F04B
:1026E0008E819F81009711F419821DC08A819B8180
:1026F0006C814D810E94B419982F89818923898327
:102700000DC0EE81FF8120818E819F8101969F8384
:102710008E838A819B81622F0E94A011EE81FF81AE
:102720008081882371F7898127960FB6F894DEBFE0
:102730000FBECDBFCF91DF9108950F93DF93CF935D
:10274000CDB7DEB729970FB6F894DEBF0FBECDBF69
:102750009C838B837E836D834F832887098781E0E9
:102760008A838B819C81009711F41A8236C08985F7
:10277000882F90E00896880F991F880F991F880F5F
:10278000991F282F8B819C81622F0E94E0108A83E1
:10279000198215C08981282F30E08D819E81FC012E
:1027A000E20FF31F20818B819C81622F0E94A01178
:1027B000982F8A8189238A8389818F5F8983898180
:1027C000883040F38B819C816F81488529850E94E8
:1027D0006012982F8A8189238A838A8129960FB66D
:1027E000F894DEBF0FBECDBFCF91DF910F9108955A
:1027F000DF93CF93CDB7DEB763970FB6F894DEBF04
:102800000FBECDBF9F878E87488B598B6A8B7B8B82
:1028100081E089838E859F85009711F4198219C004
:1028200088899989AA89BB899E012E5F3F4FBC0187
:10283000CD01A9010E94CB1C89838E859F859E01B5
:102840002E5F3F4FB9010E942813982F8981892359
:102850008983898163960FB6F894DEBF0FBECDBF22
:10286000CF91DF910895DF93CF93CDB7DEB7E8978F
:102870000FB6F894DEBF0FBECDBF98AF8FAB81E02F
:102880008EAB8FA998AD009711F41EAA01C28FA933
:1028900098AD61E00E940D098EAB8FA998AD0196AD
:1028A00061E00E940D09982F8EA989238EAB1DAA85
:1028B00014C08FA998AD9C012E5F3F4F8DA9882F22
:1028C00090E0820F931F61E00E940D09982F8EA95E
:1028D00089238EAB8DA98F5F8DAB8DA9883048F38E
:1028E00080E090E0A0EAB1E489AB9AABABABBCABC3
:1028F00069A97AA98BA99CA920E030E04AE755E4B0
:102900000E941F02DC01CB018DA79EA7AFA7B8AB29
:102910006DA57EA58FA598A920E030E040E85FE393
:102920000E94250488232CF481E090E09CA78BA7CB
:102930003FC06DA57EA58FA598A920E03FEF4FE78A
:1029400057E40E94C50318164CF569A97AA98BA90A
:102950009CA920E030E040E251E40E941F02DC012B
:10296000CB01BC01CD010E944900DC01CB019CA739
:102970008BA70FC080E991E09AA789A789A59AA59E
:102980000197F1F79AA789A78BA59CA501979CA70A
:102990008BA78BA59CA5009769F714C06DA57EA594
:1029A0008FA598A90E944900DC01CB019CA78BA7A9
:1029B0008BA59CA598A78FA38FA198A50197F1F748
:1029C00098A78FA38FA998AD68E30E946E16982FE1
:1029D0008EA989238EAB80E090E0A0EAB0E48BA3BF
:1029E0009CA3ADA3BEA36BA17CA18DA19EA120E061
:1029F00030E04AE755E40E941F02DC01CB018F8FD3
:102A000098A3A9A3BAA36F8D78A189A19AA120E068
:102A100030E040E85FE30E94250488232CF481E045
:102A200090E09E8F8D8F3FC06F8D78A189A19AA174
:102A300020E03FEF4FE757E40E94C50318164CF51E
:102A40006BA17CA18DA19EA120E030E040E251E489
:102A50000E941F02DC01CB01BC01CD010E94490094
:102A6000DC01CB019E8F8D8F0FC080E991E09C8FA0
:102A70008B8F8B8D9C8D0197F1F79C8F8B8F8D8D1C
:102A80009E8D01979E8F8D8F8D8D9E8D009769F7FE
:102A900014C06F8D78A189A19AA10E944900DC0120
:102AA000CB019E8F8D8F8D8D9E8D9A8F898F898D75
:102AB0009A8D0197F1F79A8F898F8FA998AD68E366
:102AC0000E946E16982F8EA989238EAB80E090E02D
:102AD000A6E1B3E48D8B9E8BAF8BB88F6D897E8919
:102AE0008F89988D2BEA3AEA4AEA50E40E941F0245
:102AF000DC01CB01898B9A8BAB8BBC8B69897A8982
:102B00008B899C8920E030E040E85FE30E94250447
:102B100088231CF481E0888B91C069897A898B892C
:102B20009C8920E030E04FE753E40E94C50318166B
:102B30000CF07BC06D897E898F89988D20E030E014
:102B40004AE754E40E941903DC01CB018C879D877E
:102B5000AE87BF876C857D858E859F8520E030E0C0
:102B60004AE755E40E941F02DC01CB018887998760
:102B7000AA87BB87688579858A859B8520E030E0B8
:102B800040E85FE30E94250488232CF481E090E074
:102B90009F838E833FC0688579858A859B8520E0E9
:102BA0003FEF4FE757E40E94C50318164CF56C85BC
:102BB0007D858E859F8520E030E040E251E40E94D3
:102BC0001F02DC01CB01BC01CD010E944900DC01E8
:102BD000CB019F838E830FC080E991E09D838C831E
:102BE0008C819D810197F1F79D838C838E819F81DC
:102BF00001979F838E838E819F81009769F724C000
:102C0000688579858A859B850E944900DC01CB0116
:102C10009F838E838E819F819B838A838A819B8100
:102C20000197F1F79B838A830FC069897A898B8921
:102C30009C890E944900DC01CB01888B88898983AB
:102C400089818A95F1F789838FA998AD68E30E94FD
:102C50006E16982F8EA989238EAB8FA998AD61E04F
:102C60000E946E16982F8EA989238EAB8FA998ADDE
:102C700066E00E946E16982F8EA989238EAB8FA9CD
:102C800098AD6CE00E946E16982F8EA989238EABAA
:102C90008EA9E8960FB6F894DEBF0FBECDBFCF91D8
:102CA000DF910895DF93CF9300D00F92CDB7DEB7B9
:102CB0009B838A8381E089838A819B81009711F4B9
:102CC000198205C08A819B8161E00E946E1689810C
:102CD0000F900F900F90CF91DF910895DF93CF93D6
:102CE000CDB7DEB763970FB6F894DEBF0FBECDBF8A
:102CF0009A8B898B6B8B81E0888B89899A89009765
:102D000011F4188AA9C089899A8960E00E94D809BB
:102D1000982F88898923888B1F8625C089899A895D
:102D20009C012E5F3F4F8F85882F90E0A901480FAF
:102D3000591F8B89282F30E08F85882F90E0B901AB
:102D400002C0759567958A95E2F7CB01282F21700F
:102D5000CA01622F0E94D809982F88898923888BFD
:102D60008F858F5F8F878F858830C0F289899A8998
:102D70000E94E11B80E090E0A0E0B0E48B879C879C
:102D8000AD87BE876B857C858D859E8520E030E094
:102D90004AE755E40E941F02DC01CB018F8398872C
:102DA000A987BA876F81788589859A8520E030E088
:102DB00040E85FE30E94250488232CF481E090E042
:102DC0009E838D833FC06F81788589859A8520E0B9
:102DD0003FEF4FE757E40E94C50318164CF56B858B
:102DE0007C858D859E8520E030E040E251E40E94A4
:102DF0001F02DC01CB01BC01CD010E944900DC01B6
:102E0000CB019E838D830FC080E991E09C838B83EF
:102E10008B819C810197F1F79C838B838D819E81AF
:102E200001979E838D838D819E81009769F714C0E1
:102E30006F81788589859A850E944900DC01CB01E4
:102E40009E838D838D819E819A83898389819A81D6
:102E50000197F1F79A838983888963960FB6F8946E
:102E6000DEBF0FBECDBFCF91DF910895DF93CF932B
:102E7000CDB7DEB763970FB6F894DEBF0FBECDBFF8
:102E80009A8B898B6B8B81E0888B89899A890097D3
:102E900011F4188AA9C089899A8961E00E94D80929
:102EA000982F88898923888B1F8625C089899A89CC
:102EB0009C012E5F3F4F8F85882F90E0A901480F1E
:102EC000591F8B89282F30E08F85882F90E0B9011A
:102ED00002C0759567958A95E2F7CB01282F21707E
:102EE000CA01622F0E94D809982F88898923888B6C
:102EF0008F858F5F8F878F858830C0F289899A8907
:102F00000E94E11B80E090E0A0E0B0E48B879C870A
:102F1000AD87BE876B857C858D859E8520E030E002
:102F20004AE755E40E941F02DC01CB018F8398879A
:102F3000A987BA876F81788589859A8520E030E0F6
:102F400040E85FE30E94250488232CF481E090E0B0
:102F50009E838D833FC06F81788589859A8520E027
:102F60003FEF4FE757E40E94C50318164CF56B85F9
:102F70007C858D859E8520E030E040E251E40E9412
:102F80001F02DC01CB01BC01CD010E944900DC0124
:102F9000CB019E838D830FC080E991E09C838B835E
:102FA0008B819C810197F1F79C838B838D819E811E
:102FB00001979E838D838D819E81009769F714C050
:102FC0006F81788589859A850E944900DC01CB0153
:102FD0009E838D838D819E819A83898389819A8145
:102FE0000197F1F79A838983888963960FB6F894DD
:102FF000DEBF0FBECDBFCF91DF910895DF93CF939A
:10300000CDB7DEB764970FB6F894DEBF0FBECDBF65
:10301000998B888B6A8B4B8B2C8B81E08F8788896F
:103020009989009711F41F868AC0888999896A89CD
:103030004B890E942C1A8889998961E00E94D809DD
:10304000982F8F8589238F87888999896C890E9419
:103050003617982F8F8589238F8780E090E0A0E036
:10306000B0E48B879C87AD87BE876B857C858D851B
:103070009E8520E030E04AE755E40E941F02DC0113
:10308000CB018F839887A987BA876F8178858985D7
:103090009A8520E030E040E85FE30E942504882321
:1030A0002CF481E090E09E838D833FC06F81788512
:1030B00089859A8520E03FEF4FE757E40E94C503DA
:1030C00018164CF56B857C858D859E8520E030E05B
:1030D00040E251E40E941F02DC01CB01BC01CD01A2
:1030E0000E944900DC01CB019E838D830FC080E9E3
:1030F00091E09C838B838B819C810197F1F79C836A
:103100008B838D819E8101979E838D838D819E818E
:10311000009769F714C06F81788589859A850E9428
:103120004900DC01CB019E838D838D819E819A8332
:10313000898389819A810197F1F79A8389838F85A1
:1031400064960FB6F894DEBF0FBECDBFCF91DF916E
:103150000895DF93CF9300D000D00F92CDB7DEB7A4
:103160009B838A837D836C8381E089838A819B81B1
:10317000009721F08C819D81009779F4198212C00B
:10318000EC81FD8120818C819D8101969D838C83C2
:103190008A819B81622F0E943617EC81FD8180819C
:1031A000882371F789810F900F900F900F900F90E7
:1031B000CF91DF910895DF93CF93CDB7DEB72797F7
:1031C0000FB6F894DEBF0FBECDBF9B838A836C839E
:1031D0004D833F832E8381E089838A819B81009781
:1031E00021F08E819F81009711F419821DC08A8180
:1031F0009B816C814D810E942C1A982F8981892393
:1032000089830DC0EE81FF8120818E819F8101968F
:103210009F838E838A819B81622F0E943617EE8165
:10322000FF818081882371F7898127960FB6F894F2
:10323000DEBF0FBECDBFCF91DF9108950F93DF9317
:10324000CF93CDB7DEB729970FB6F894DEBF0FBE88
:10325000CDBF9C838B837E836D834F8328870987B3
:1032600081E08A838B819C81009711F41A8236C099
:103270008985882F90E00896880F991F880F991FDD
:10328000880F991F282F8B819C81622F0E946E16B8
:103290008A83198215C08981282F30E08D819E8113
:1032A000FC01E20FF31F20818B819C81622F0E9421
:1032B0003617982F8A8189238A8389818F5F898332
:1032C0008981883040F38B819C816F814885298575
:1032D0000E94FE17982F8A8189238A838A812996E2
:1032E0000FB6F894DEBF0FBECDBFCF91DF910F9127
:1032F0000895DF93CF93CDB7DEB763970FB6F894F9
:10330000DEBF0FBECDBF9F878E87488B598B6A8BE0
:103310007B8B81E089838E859F85009711F41982CC
:1033200019C088899989AA89BB899E012E5F3F4F60
:10333000BC01CD01A9010E94CB1C89838E859F858C
:103340009E012E5F3F4FB9010E94A918982F8981D5
:1033500089238983898163960FB6F894DEBF0FBEF7
:10336000CDBFCF91DF910895DF93CF93CDB7DEB777
:1033700027970FB6F894DEBF0FBECDBF9B838A831D
:103380006C834D8381E089838A819B81009711F44E
:10339000198258C08D8181508D838C81282F30E017
:1033A0003F832E838E819F818230910519F12E817A
:1033B0003F812330310534F48E819F818130910526
:1033C00061F03FC02E813F812330310501F18E81B4
:1033D0009F818430910541F134C08D81282F205880
:1033E0008A819B81622F0E94E010982F8981892316
:1033F000898328C08D81282F20548A819B81622F48
:103400000E94E010982F8981892389831BC08D81B8
:10341000282F2C568A819B81622F0E94E010982FC2
:103420008981892389830EC08D81282F2C528A811E
:103430009B81622F0E94E010982F898189238983C4
:1034400001C01982898127960FB6F894DEBF0FBE9E
:10345000CDBFCF91DF910895DF93CF93CDB7DEB786
:1034600027970FB6F894DEBF0FBECDBF9B838A832C
:103470006C834D8381E089838A819B81009711F45D
:10348000198258C08D8181508D838C81282F30E026
:103490003F832E838E819F818230910519F12E8189
:1034A0003F812330310534F48E819F818130910535
:1034B00061F03FC02E813F812330310501F18E81C3
:1034C0009F818430910541F134C08D81282F20588F
:1034D0008A819B81622F0E946E16982F8981892391
:1034E000898328C08D81282F20548A819B81622F57
:1034F0000E946E16982F8981892389831BC08D8134
:10350000282F2C568A819B81622F0E946E16982F3D
:103510008981892389830EC08D81282F2C528A812D
:103520009B81622F0E946E16982F8981892389833F
:1035300001C01982898127960FB6F894DEBF0FBEAD
:10354000CDBFCF91DF910895DF93CF9300D000D00E
:10355000CDB7DEB79B838A836C8381E089838A81C0
:103560009B81009711F419823AC08A819B819C014A
:103570002E5F3F4F8C81482F4170C901642F0E94FC
:10358000D80989838A819B819C012D5F3F4F8C8163
:103590008695482F4170C901642F0E94D8098983FC
:1035A0008A819B819C012C5F3F4F8C8186958695FB
:1035B000482F4170C901642F0E94D80989838A81EC
:1035C0009B819C012B5F3F4F8C81869586958695CC
:1035D000482F4170C901642F0E94D80989838981CD
:1035E0000F900F900F900F90CF91DF910895DF9380
:1035F000CF93CDB7DEB76B970FB6F894DEBF0FBE93
:10360000CDBF9B8F8A8F81E0898F8A8D9B8D00979C
:1036100011F4198ECCC08A8D9B8D019661E00E94B9
:10362000D809898F80E090E0A0E8BFE38D8B9E8B66
:10363000AF8BB88F6D897E898F89988D2BEA3AEA96
:103640004AEA50E40E941F02DC01CB01898B9A8B6D
:10365000AB8BBC8B69897A898B899C8920E030E0AF
:1036600040E85FE30E94250488231CF481E0888BF6
:1036700091C069897A898B899C8920E030E04FE785
:1036800053E40E94C50318160CF07BC06D897E8937
:103690008F89988D20E030E04AE754E40E941903B6
:1036A000DC01CB018C879D87AE87BF876C857D85CC
:1036B0008E859F8520E030E04AE755E40E941F0296
:1036C000DC01CB0188879987AA87BB8768857985C4
:1036D0008A859B8520E030E040E85FE30E94250476
:1036E00088232CF481E090E09F838E833FC068851F
:1036F00079858A859B8520E03FEF4FE757E40E945C
:10370000C50318164CF56C857D858E859F8520E058
:1037100030E040E251E40E941F02DC01CB01BC0119
:10372000CD010E944900DC01CB019F838E830FC035
:1037300080E991E09D838C838C819D810197F1F7D5
:103740009D838C838E819F8101979F838E838E8141
:103750009F81009769F724C0688579858A859B8554
:103760000E944900DC01CB019F838E838E819F8163
:103770009B838A838A819B810197F1F79B838A834C
:103780000FC069897A898B899C890E944900DC0174
:10379000CB01888B8889898389818A95F1F7898310
:1037A0008A8D9B8D019660E00E94D809898F898D52
:1037B0006B960FB6F894DEBF0FBECDBFCF91DF91F1
:1037C0000895DF93CF93CDB7DEB76B970FB6F8941C
:1037D000DEBF0FBECDBF9B8F8A8F81E0898F8A8D20
:1037E0009B8D009711F4198ECCC08A8D9B8D01960C
:1037F00061E00E94D809898F80E090E0A0E8BFE3F3
:103800008D8B9E8BAF8BB88F6D897E898F89988DBC
:103810002BEA3AEA4AEA50E40E941F02DC01CB019B
:10382000898B9A8BAB8BBC8B69897A898B899C89B4
:1038300020E030E040E85FE30E94250488231CF488
:1038400081E0888B91C069897A898B899C8920E085
:1038500030E04FE753E40E94C50318160CF07BC01C
:103860006D897E898F89988D20E030E04AE754E4A5
:103870000E941903DC01CB018C879D87AE87BF872F
:103880006C857D858E859F8520E030E04AE755E494
:103890000E941F02DC01CB0188879987AA87BB871A
:1038A000688579858A859B8520E030E040E85FE384
:1038B0000E94250488232CF481E090E09F838E836E
:1038C0003FC0688579858A859B8520E03FEF4FE77B
:1038D00057E40E94C50318164CF56C857D858E85CE
:1038E0009F8520E030E040E251E40E941F02DC01AD
:1038F000CB01BC01CD010E944900DC01CB019F83BB
:103900008E830FC080E991E09D838C838C819D81A3
:103910000197F1F79D838C838E819F8101979F830F
:103920008E838E819F81009769F724C06885798591
:103930008A859B850E944900DC01CB019F838E8391
:103940008E819F819B838A838A819B810197F1F776
:103950009B838A830FC069897A898B899C890E949D
:103960004900DC01CB01888B8889898389818A950C
:10397000F1F789838A8D9B8D019660E00E94D809BA
:10398000898F898D6B960FB6F894DEBF0FBECDBFC1
:10399000CF91DF910895DF93CF93CDB7DEB727970F
:1039A0000FB6F894DEBF0FBECDBF6A837B838C83D6
:1039B0009D835F834E8381E089838E819F81009701
:1039C00011F4198225C08DB79EB708970FB6F894E9
:1039D0009EBF0FBE8DBFEDB7FEB731968E819F8122
:1039E0009183808380E690E0938382838A819B81A8
:1039F000AC81BD8184839583A683B7830E94921F87
:103A00008DB79EB708960FB6F8949EBF0FBE8DBFB8
:103A1000898127960FB6F894DEBF0FBECDBFCF9138
:103A2000DF910895DF93CF9300D000D00F92CDB7F0
:103A3000DEB79D838C8381E08B838C819D81009791
:103A400011F41B8231C01A8219820FC02C813D8172
:103A500089819A81820F931F61E00E940D098B83F7
:103A600089819A8101969A83898389819A81843098
:103A7000910564F31A82198212C08C819D819C0188
:103A80002C5F3F4F89819A81820F931F60E00E94D3
:103A90000D098B8389819A8101969A838983898113
:103AA0009A81843091054CF38B810F900F900F9089
:103AB0000F900F90CF91DF910895DF93CF93CDB703
:103AC000DEB767970FB6F894DEBF0FBECDBF9D8BF4
:103AD0008C8B7F8B6E8B81E08A8B8C899D89009784
:103AE00011F41A8AE4C01F86198A0EC02C893D89F8
:103AF0008989882F90E0820F931F61E00E94D80986
:103B00008A8B89898F5F898B8989843078F3198AB8
:103B1000CAC02C893D898989882F90E0820F931F24
:103B200060E00E94D809982F8A8989238A8B80E0D7
:103B300090E0A0E0B0E48B879C87AD87BE876B8563
:103B40007C858D859E8520E030E04AE755E40E9423
:103B50001F02DC01CB018F839887A987BA876F8109
:103B6000788589859A8520E030E040E85FE30E940F
:103B7000250488232CF481E090E09E838D833FC050
:103B80006F81788589859A8520E03FEF4FE757E47C
:103B90000E94C50318164CF56B857C858D859E8526
:103BA00020E030E040E251E40E941F02DC01CB0142
:103BB000BC01CD010E944900DC01CB019E838D83B5
:103BC0000FC080E991E09C838B838B819C8101975E
:103BD000F1F79C838B838D819E8101979E838D83DA
:103BE0008D819E81009769F714C06F8178858985E2
:103BF0009A850E944900DC01CB019E838D838D81D3
:103C00009E819A83898389819A810197F1F79A83AA
:103C10008983188A31C08C899D899C012C5F3F4F14
:103C20008889882F90E0820F931F9E012D5E3F4F61
:103C3000B9010E94630A982F8A8989238A8B8B890C
:103C40008823B9F48989482F50E08889282F30E0EB
:103C5000CA01880F991F880F991F820F931FFC01BB
:103C6000ED57FF4F8081EE89FF89808381E08F8748
:103C700006C088898F5F888B8889843060F22C89A0
:103C80003D898989882F90E0820F931F61E00E940F
:103C9000D809982F8A8989238A8B8F85813039F0BA
:103CA00089898F5F898B8989843008F432CF8A892A
:103CB00067960FB6F894DEBF0FBECDBFCF91DF91F0
:103CC0000895DF93CF9300D000D0CDB7DEB79C83AB
:103CD0008B8381E089838B819C81009711F4198209
:103CE00034C0EB81FC818081282F2370EB81FC8123
:103CF0008081982F969596959770EB81FC818081B5
:103D0000382F329536953695337031701A8223707C
:103D10008A818C7F822B8A83892F8770982F990FB5
:103D2000990F8A81837E892B8A83832F8170982FB4
:103D30009295990F990F907C8A818F7B892B8A832A
:103D4000CE0102960E940508898389810F900F9009
:103D50000F900F90CF91DF910895DF93CF93CDB760
:103D6000DEB72B970FB6F894DEBF0FBECDBF9D8395
:103D70008C837F836E8381E089838C819D81009712
:103D800011F4198251C0EC81FD818081282F2370AC
:103D9000EC81FD818081982F9695969597701B8276
:103DA00023708B818C7F822B8B83892F8770982F38
:103DB000990F990F8B81837E892B8B83CE0103967C
:103DC0009E012E5F3F4FB9010E94630A8983EC81F7
:103DD000FD8180818295869587708170282F30E0E3
:103DE0003A87298789859A85009731F029853A8510
:103DF0002130310561F017C08A811886813011F0B9
:103E000031E03887EE81FF81888580830DC08A810B
:103E10008B879B85992311F021E02B878B85EE8181
:103E2000FF81808301C0198289812B960FB6F89497
:103E3000DEBF0FBECDBFCF91DF910895DF93CF934B
:103E4000CDB7DEB784EA90E00E94A30ACF91DF915C
:103E50000895DF93CF930F92CDB7DEB71982898192
:103E6000836089838981837E886089838981806278
:103E70008983898180648983CE0101960E94611EB5
:103E8000AFE5B0E0EFE5F0E0808180688C9382E000
:103E90000E944F06ABE5B0E0EBE5F0E08081806486
:103EA0008C938EE19FE10E94270784EA90E061E015
:103EB0000E940D09FFCF2F923F924F925F926F9217
:103EC0007F928F929F92AF92BF92CF92DF92EF92AA
:103ED000FF920F931F93CF93DF93CDB7DEB7CA1B2B
:103EE000DB0B0FB6F894DEBF0FBECDBF09942A8856
:103EF000398848885F846E847D848C849B84AA84FE
:103F0000B984C884DF80EE80FD800C811B81AA818A
:103F1000B981CE0FD11D0FB6F894DEBF0FBECDBF55
:103F2000ED010895AEE0B0E0E8E9FFE10C94691F0F
:103F30000D891E8986E08C831A8309838FEF9FE7A2
:103F40009E838D839E01275E3F4FCE0101966F8930
:103F5000788DA9010E94B61F2F813885020F131F8B
:103F6000F80110822E96E4E00C94851FABE0B0E0DF
:103F7000ECEBFFE10C945B1F3C012B015A01FC01AF
:103F800017821682838181FD03C06FEF7FEFC6C168
:103F90009AE0892E1E010894211C311CF301238113
:103FA000F20123FD859123FF81912F01882309F4DC
:103FB000B2C1853239F423FD859123FF81912F0110
:103FC000853229F490E0B3010E94A921E7CF982F10
:103FD000FF24EE249924FFE1FF15D0F09B3269F015
:103FE0009C3228F4903259F0933291F40EC09D32F5
:103FF00049F0903369F441E024C052E0F52A84E0AE
:10400000F82A28C098E0F92A25C0E0E1FE2A22C05B
:10401000F7FC29C0892F80538A3070F4F6FE05C062
:10402000989C902C1124980E15C0E89CE02C11242B
:10403000E80EF0E2FF2A0EC09E3229F4F6FC6BC1B6
:1040400040E4F42A07C09C3619F450E8F52A02C06F
:10405000983649F4F20123FD959123FF91912F01A8
:10406000992309F0B8CF892F8554833018F08052F6
:10407000833038F444E050E0A40EB51E5FE359836A
:104080000FC0933631F0933779F0933509F056C06D
:1040900020C0F5018081898342E050E0A40EB51E66
:1040A000610101E010E012C0F501C080D180F6FC92
:1040B00003C06FEF7FEF02C0692D70E042E050E077
:1040C000A40EB51EC6010E949E218C015FE7F52259
:1040D00014C0F501C080D180F6FC03C06FEF7FEF04
:1040E00002C0692D70E042E050E0A40EB51EC6018A
:1040F0000E9493218C0150E8F52AF3FE07C01AC0F4
:1041000080E290E0B3010E94A921EA948E2D90E014
:1041100008171907A8F30EC0F601F7FC8591F7FE02
:1041200081916F0190E0B3010E94A921E110EA940E
:10413000015010400115110579F7EAC0943611F0CD
:10414000993669F5F7FE08C0F50120813181428179
:10415000538184E090E00AC0F501808191819C0147
:10416000442737FD4095542F82E090E0A80EB91EF9
:104170009FE6F92257FF09C050954095309521954B
:104180003F4F4F4F5F4FE0E8FE2ACA01B901A1013E
:104190002AE030E00E94D521D82ED21840C09537B1
:1041A00029F41F2D1F7E2AE030E01DC01F2D197F2E
:1041B0009F3661F0903720F4983509F0ACC00FC0FD
:1041C000903739F0983709F0A6C004C028E030E0F5
:1041D0000AC0106114FD146020E130E004C014FD39
:1041E000166020E132E017FF08C0F501608171819F
:1041F0008281938144E050E008C0F5018081918183
:10420000BC0180E090E042E050E0A40EB51EA101A8
:104210000E94D521D82ED2188FE7F82EF122F6FE73
:104220000BC05EEFF522D91438F4F4FE07C0F2FC9F
:1042300005C08FEEF82202C01D2D01C0192DF4FE1D
:104240000DC0FE01ED0DF11D8081803319F499EE52
:10425000F92208C01F5FF2FE05C003C08F2D8678CB
:1042600009F01F5F0F2DF3FC14C0F0FE0FC01E15E8
:1042700010F09D2C0BC09D2C9E0C911A1E2D06C07B
:1042800080E290E0B3010E94A9211F5F1E15C0F3D8
:1042900004C01E1510F4E11A01C0EE2404FF0FC083
:1042A00080E390E0B3010E94A92102FF1DC001FD3F
:1042B00003C088E790E00EC088E590E00BC0802F37
:1042C000867891F001FF02C08BE201C080E2F7FC2A
:1042D0008DE290E0B3010E94A92106C080E390E046
:1042E000B3010E94A9219A94D914C0F3DA94F10180
:1042F000ED0DF11D808190E0B3010E94A921DD2028
:10430000A9F706C080E290E0B3010E94A921EA94D7
:10431000EE20C1F743CEF30166817781CB012B9666
:10432000E2E10C94771FFC01059061507040011090
:10433000D8F7809590958E0F9F1F0895FC016150CE
:10434000704001900110D8F7809590958E0F9F1FB7
:1043500008950F931F93CF93DF938C01EB018B8113
:1043600081FF1BC082FF0DC02E813F818C819D810A
:104370002817390764F4E881F9810193F983E88308
:1043800006C0E885F985802F0995892B31F48E8147
:104390009F8101969F838E8302C00FEF1FEFC8019C
:1043A000DF91CF911F910F910895FA01AA2728302C
:1043B00051F1203181F1E8946F936E7F6E5F7F4FF2
:1043C0008F4F9F4FAF4FB1E03ED0B4E03CD0670F6E
:1043D000781F891F9A1FA11D680F791F8A1F911DC1
:1043E000A11D6A0F711D811D911DA11D20D009F411
:1043F00068943F912AE0269F11243019305D319353
:10440000DEF6CF010895462F4770405D4193B3E03B
:104410000FD0C9F7F6CF462F4F70405D4A3318F0E2
:10442000495D31FD4052419302D0A9F7EACFB4E093
:10443000A6959795879577956795BA95C9F700974B
:104440006105710508959B01AC010A2E06945795EC
:10445000479537952795BA95C9F7620F731F841F43
:0A446000951FA01D0895F894FFCFEA
:10446A0025690000000000000000003A003700340F
:10447A000031003B00380035003200390036003385
:10448A000030003738392F3435362A3132332D632C
:0E449A00303D2B3F065B4F666D7D077F670050
:00000001FF
