:100000000C942A000C943F000C943F000C943F0089
:100010000C943F000C943F000C943F000C943F0064
:100020000C943F000C943F000C943F000C943F0054
:100030000C943F000C943F000C943F000C943F0044
:100040000C943F000C943F000C943F000C943F0034
:100050000C943F0011241FBECFE5D8E0DEBFCDBF1A
:1000600010E0A0E6B0E0E6EDF6E002C005900D92EB
:10007000A838B107D9F70E941D030C9469030C94AA
:100080000000DC01009709F475C08C91482F46955B
:1000900046954770982F9370E92FF0E082958695EA
:1000A0008170282F30E02115310529F021303105EC
:1000B000A1F050E022C0EE0FFF1FE05AFF4F019069
:1000C000F081E02D208181E090E002C0880F991F2F
:1000D0004A95E2F7809582230EC0EE0FFF1FE05A8B
:1000E000FF4F0190F081E02D808102C0220F331F6D
:1000F0004A95E2F7822B808351E04C91842F8295C0
:10010000869586958170282F30E02115310521F0E4
:100110002130310579F518C0E42FE370F0E0EE0FDF
:10012000FF1FE859FF4F0190F081E02D2081469597
:100130004695477081E090E002C0880F991F4A956C
:10014000E2F78095822314C0E42FE370F0E0EE0F15
:10015000FF1FE859FF4F0190F081E02D8081469507
:100160004695477002C0220F331F4A95E2F7822B53
:10017000808301C050E0852F0895FC01009799F11C
:100180008081382F3695369537708370E82FF0E0F0
:10019000662319F0613039F513C0EE0FFF1FE05AE6
:1001A000FF4F0190F081E02D208181E090E002C0BE
:1001B000880F991F3A95E2F780958223808311C0BA
:1001C000EE0FFF1FE05AFF4F0190F081E02D2081DC
:1001D00081E090E002C0880F991F3A95E2F7282B42
:1001E000208381E0089580E00895FC01DB01009701
:1001F00011F480E008952081E22FE370F0E0EE0F2B
:10020000FF1FE05AFF4F0190F081E02D808190E0C8
:1002100026952695277002C0959587952A95E2F731
:1002200081708C9381E00895FC01009799F18081A1
:10023000382F3695369537708370E82FF0E06623B7
:1002400019F0613039F513C0EE0FFF1FE859FF4F69
:100250000190F081E02D208181E090E002C0880FC4
:10026000991F3A95E2F780958223808311C0EE0FA3
:10027000FF1FE859FF4F0190F081E02D208181E0C0
:1002800090E002C0880F991F3A95E2F7282B20834F
:1002900081E0089580E00895FC01DB01009711F4EE
:1002A00080E008952081E22FE370F0E0EE0FFF1F61
:1002B000E059FF4F0190F081E02D808190E026957C
:1002C0002695277002C0959587952A95E2F781704B
:1002D0008C9381E00895FC01009711F480E008956B
:1002E0002081E22FE370F0E0EE0FFF1FE859FF4F8F
:1002F0000190F081E02D308126952695277081E0D0
:1003000090E002C0880F991F2A95E2F738273083C2
:1003100081E00895843010F080E00895E82FF0E047
:10032000EE0FFF1FE05AFF4F0190F081E02D608338
:1003300081E00895DB01843010F080E00895E82F1B
:10034000F0E0EE0FFF1FE05AFF4F0190F081E02D2B
:1003500080818C9381E00895843010F080E00895CE
:10036000E82FF0E0EE0FFF1FE859FF4F0190F081FA
:10037000E02D608381E00895DB01843010F080E09F
:100380000895E82FF0E0EE0FFF1FE859FF4F0190AE
:10039000F081E02D80818C9381E00895843010F00D
:1003A00080E00895E82FF0E0EE0FFF1FE859FF4FBF
:1003B0000190F081E02D80818095808381E0089517
:1003C000DF93CF930F92CDB7DEB7FC01009711F406
:1003D00080E008C080818F718983CE0101960E94E0
:1003E0006B0181E00F90CF91DF910895DF93CF9360
:1003F0000F92CDB7DEB7FC01009711F480E009C081
:1004000080818F718983CE01019660E00E94140182
:1004100081E00F90CF91DF910895DF93CF930F92FA
:10042000CDB7DEB7FC01009711F480E009C08081F0
:100430008F718983CE01019661E00E94140181E0F1
:100440000F90CF91DF910895DF93CF930F92CDB7A7
:10045000DEB7FC01009711F480E00DC08081982F79
:10046000990F90748F718062892B8983CE010196D8
:100470000E94410081E00F90CF91DF910895AF92EB
:10048000BF92CF92DF92EF92FF920F931F93DF9371
:10049000CF930F92CDB7DEB76C015B01009711F4DB
:1004A00080E03EC061E00E94140186010C5F1F4F96
:1004B0007E010894E11CF11CC801B7010E944C01A7
:1004C0008981813011F480E018C0C801B7010E9411
:1004D0004C018981813089F0C801B7010E944C012B
:1004E0008981813011F482E008C0C801B7010E94FF
:1004F0004C018981813079F483E090E0FC01EE0FBA
:10050000FF1FEE0FFF1FE858FF4F2081F5012083EA
:100510008C0D9D1D01C0C80160E00E94140181E0A6
:100520000F90CF91DF911F910F91FF90EF90DF908F
:10053000CF90BF90AF900895CF93DF93EC010097D9
:1005400011F480E027C061E00E94BD00CE01019659
:1005500061E00E94BD00CE01029661E00E94BD00F4
:10056000CE01039661E00E94BD00CE01049660E0DA
:100570000E94BD00CE01059660E00E94BD00CE0144
:10058000069660E00E94BD00CE01079660E00E94E2
:10059000BD0081E0DF91CF910895EF92FF920F931C
:1005A0001F93DF93CF9300D0CDB7DEB78C017B01D3
:1005B000009719F1FC0180818F718A83CE01029628
:1005C000BE016F5F7F4F0E944C01F80180818295D0
:1005D0008695817090E0009719F0019771F405C03D
:1005E00090E08981813021F404C090E089818111FB
:1005F00091E0F701908381E001C080E00F900F90BF
:10060000CF91DF911F910F91FF90EF900895DF93AD
:10061000CF930F92CDB7DEB7FC01009711F480E0C5
:1006200008C080818F758983CE0101960E944100A8
:1006300081E00F90CF91DF910895EF92FF920F9399
:100640001F93DF93CF93CDB7DEB729970FB6F894FA
:10065000DEBF0FBECDBF80E061E00E948A0180E076
:1006600060E00E94AC018E010E5F1F4F88E0F80130
:1006700011928A95E9F782E08A8386E08B838AE08B
:100680008C838EE08D8382E18E8386E18F838AE185
:1006900088878EE18987C8010E949C0219827801AF
:1006A0008E010F5F1F4FC701B8010E943F02898171
:1006B000813319F480E061E009C0823319F480E0ED
:1006C00062E004C0833379F780E064E00E94AC010B
:0606D000EACFF894FFCF11
:1006D6003A003700340031003B0038003500320064
:1006E600390036003300300031323341343536427A
:0806F600373839432A30234450
:00000001FF
